{
  "_format": "hh-sol-artifact-1",
  "contractName": "Donation",
  "sourceName": "contracts/Donation.sol",
  "abi": [
    {
      "inputs": [],
      "stateMutability": "payable",
      "type": "constructor"
    },
    {
      "anonymous": false,
      "inputs": [
        {
          "indexed": false,
          "internalType": "uint256",
          "name": "id",
          "type": "uint256"
        },
        {
          "indexed": false,
          "internalType": "string",
          "name": "username",
          "type": "string"
        },
        {
          "indexed": false,
          "internalType": "address payable",
          "name": "walletAddress",
          "type": "address"
        },
        {
          "indexed": false,
          "internalType": "string",
          "name": "ipfsHash",
          "type": "string"
        },
        {
          "indexed": false,
          "internalType": "string",
          "name": "userbio",
          "type": "string"
        },
        {
          "indexed": false,
          "internalType": "uint256",
          "name": "donationsReceived",
          "type": "uint256"
        },
        {
          "indexed": false,
          "internalType": "string",
          "name": "networkOption",
          "type": "string"
        },
        {
          "indexed": false,
          "internalType": "uint256",
          "name": "supporters",
          "type": "uint256"
        }
      ],
      "name": "CreatorEvent",
      "type": "event"
    },
    {
      "anonymous": false,
      "inputs": [
        {
          "indexed": true,
          "internalType": "address",
          "name": "from",
          "type": "address"
        },
        {
          "indexed": false,
          "internalType": "uint256",
          "name": "timestamp",
          "type": "uint256"
        },
        {
          "indexed": false,
          "internalType": "string",
          "name": "message",
          "type": "string"
        }
      ],
      "name": "SupporterEvent",
      "type": "event"
    },
    {
      "inputs": [
        {
          "internalType": "bytes",
          "name": "",
          "type": "bytes"
        }
      ],
      "name": "checkUpkeep",
      "outputs": [
        {
          "internalType": "bool",
          "name": "upkeepNeeded",
          "type": "bool"
        },
        {
          "internalType": "bytes",
          "name": "",
          "type": "bytes"
        }
      ],
      "stateMutability": "view",
      "type": "function"
    },
    {
      "inputs": [],
      "name": "contractBal",
      "outputs": [
        {
          "internalType": "uint256",
          "name": "",
          "type": "uint256"
        }
      ],
      "stateMutability": "view",
      "type": "function"
    },
    {
      "inputs": [],
      "name": "contractOwnerWithdraw",
      "outputs": [],
      "stateMutability": "nonpayable",
      "type": "function"
    },
    {
      "inputs": [],
      "name": "creatorCounter",
      "outputs": [
        {
          "internalType": "uint256",
          "name": "",
          "type": "uint256"
        }
      ],
      "stateMutability": "view",
      "type": "function"
    },
    {
      "inputs": [
        {
          "internalType": "uint256",
          "name": "index",
          "type": "uint256"
        }
      ],
      "name": "getCreatorBal",
      "outputs": [
        {
          "internalType": "uint256",
          "name": "",
          "type": "uint256"
        }
      ],
      "stateMutability": "view",
      "type": "function"
    },
    {
      "inputs": [],
      "name": "getCreatorCount",
      "outputs": [
        {
          "internalType": "uint256",
          "name": "",
          "type": "uint256"
        }
      ],
      "stateMutability": "view",
      "type": "function"
    },
    {
      "inputs": [
        {
          "internalType": "uint256",
          "name": "index",
          "type": "uint256"
        }
      ],
      "name": "getCreatorInfo",
      "outputs": [
        {
          "internalType": "uint256",
          "name": "id",
          "type": "uint256"
        },
        {
          "internalType": "string",
          "name": "",
          "type": "string"
        },
        {
          "internalType": "string",
          "name": "",
          "type": "string"
        },
        {
          "internalType": "address",
          "name": "",
          "type": "address"
        },
        {
          "internalType": "string",
          "name": "",
          "type": "string"
        },
        {
          "internalType": "uint256",
          "name": "",
          "type": "uint256"
        },
        {
          "internalType": "string",
          "name": "",
          "type": "string"
        },
        {
          "internalType": "uint256",
          "name": "",
          "type": "uint256"
        }
      ],
      "stateMutability": "view",
      "type": "function"
    },
    {
      "inputs": [],
      "name": "getCreatorList",
      "outputs": [
        {
          "components": [
            {
              "internalType": "uint256",
              "name": "id",
              "type": "uint256"
            },
            {
              "internalType": "string",
              "name": "username",
              "type": "string"
            },
            {
              "internalType": "string",
              "name": "ipfsHash",
              "type": "string"
            },
            {
              "internalType": "address payable",
              "name": "walletAddress",
              "type": "address"
            },
            {
              "internalType": "string",
              "name": "userbio",
              "type": "string"
            },
            {
              "internalType": "uint256",
              "name": "donationsReceived",
              "type": "uint256"
            },
            {
              "internalType": "string",
              "name": "networkOption",
              "type": "string"
            },
            {
              "internalType": "uint256",
              "name": "supporters",
              "type": "uint256"
            }
          ],
          "internalType": "struct Donation.CreatorInfo[]",
          "name": "",
          "type": "tuple[]"
        }
      ],
      "stateMutability": "view",
      "type": "function"
    },
    {
      "inputs": [
        {
          "internalType": "uint256",
          "name": "_index",
          "type": "uint256"
        }
      ],
      "name": "getCreatorObj",
      "outputs": [
        {
          "components": [
            {
              "internalType": "uint256",
              "name": "id",
              "type": "uint256"
            },
            {
              "internalType": "string",
              "name": "username",
              "type": "string"
            },
            {
              "internalType": "string",
              "name": "ipfsHash",
              "type": "string"
            },
            {
              "internalType": "address payable",
              "name": "walletAddress",
              "type": "address"
            },
            {
              "internalType": "string",
              "name": "userbio",
              "type": "string"
            },
            {
              "internalType": "uint256",
              "name": "donationsReceived",
              "type": "uint256"
            },
            {
              "internalType": "string",
              "name": "networkOption",
              "type": "string"
            },
            {
              "internalType": "uint256",
              "name": "supporters",
              "type": "uint256"
            }
          ],
          "internalType": "struct Donation.CreatorInfo",
          "name": "",
          "type": "tuple"
        }
      ],
      "stateMutability": "view",
      "type": "function"
    },
    {
      "inputs": [
        {
          "internalType": "uint256",
          "name": "index",
          "type": "uint256"
        }
      ],
      "name": "getSupportInfo",
      "outputs": [
        {
          "internalType": "address",
          "name": "_from",
          "type": "address"
        },
        {
          "internalType": "uint256",
          "name": "_timestamp",
          "type": "uint256"
        },
        {
          "internalType": "string",
          "name": "_message",
          "type": "string"
        }
      ],
      "stateMutability": "view",
      "type": "function"
    },
    {
      "inputs": [],
      "name": "getSupporterList",
      "outputs": [
        {
          "components": [
            {
              "internalType": "address",
              "name": "from",
              "type": "address"
            },
            {
              "internalType": "uint256",
              "name": "timestamp",
              "type": "uint256"
            },
            {
              "internalType": "string",
              "name": "message",
              "type": "string"
            }
          ],
          "internalType": "struct Donation.Supporter[]",
          "name": "",
          "type": "tuple[]"
        }
      ],
      "stateMutability": "view",
      "type": "function"
    },
    {
      "inputs": [
        {
          "internalType": "uint256",
          "name": "_index",
          "type": "uint256"
        }
      ],
      "name": "getSupporterObj",
      "outputs": [
        {
          "components": [
            {
              "internalType": "address",
              "name": "from",
              "type": "address"
            },
            {
              "internalType": "uint256",
              "name": "timestamp",
              "type": "uint256"
            },
            {
              "internalType": "string",
              "name": "message",
              "type": "string"
            }
          ],
          "internalType": "struct Donation.Supporter",
          "name": "",
          "type": "tuple"
        }
      ],
      "stateMutability": "view",
      "type": "function"
    },
    {
      "inputs": [],
      "name": "getSupporters",
      "outputs": [
        {
          "internalType": "uint256",
          "name": "",
          "type": "uint256"
        }
      ],
      "stateMutability": "view",
      "type": "function"
    },
    {
      "inputs": [],
      "name": "owner",
      "outputs": [
        {
          "internalType": "address payable",
          "name": "",
          "type": "address"
        }
      ],
      "stateMutability": "view",
      "type": "function"
    },
    {
      "inputs": [
        {
          "internalType": "bytes",
          "name": "",
          "type": "bytes"
        }
      ],
      "name": "performUpkeep",
      "outputs": [],
      "stateMutability": "nonpayable",
      "type": "function"
    },
    {
      "inputs": [],
      "name": "sendContractBalanceToOwner",
      "outputs": [],
      "stateMutability": "nonpayable",
      "type": "function"
    },
    {
      "inputs": [
        {
          "internalType": "string",
          "name": "_message",
          "type": "string"
        },
        {
          "internalType": "uint256",
          "name": "_index",
          "type": "uint256"
        }
      ],
      "name": "sendTip",
      "outputs": [],
      "stateMutability": "payable",
      "type": "function"
    },
    {
      "inputs": [
        {
          "internalType": "string",
          "name": "_message",
          "type": "string"
        },
        {
          "internalType": "uint256",
          "name": "_index",
          "type": "uint256"
        },
        {
          "internalType": "uint256",
          "name": "_amount",
          "type": "uint256"
        },
        {
          "internalType": "address",
          "name": "_tokenAddress",
          "type": "address"
        }
      ],
      "name": "sendTipERC20",
      "outputs": [],
      "stateMutability": "payable",
      "type": "function"
    },
    {
      "inputs": [
        {
          "internalType": "string",
          "name": "_username",
          "type": "string"
        },
        {
          "internalType": "string",
          "name": "_ipfsHash",
          "type": "string"
        },
        {
          "internalType": "string",
          "name": "_userbio",
          "type": "string"
        },
        {
          "internalType": "string",
          "name": "_networkOption",
          "type": "string"
        }
      ],
      "name": "setCreatorDetail",
      "outputs": [],
      "stateMutability": "nonpayable",
      "type": "function"
    }
  ],
  "bytecode": "0x60806040526001600055600380546001600160a01b031916331790556122a98061002a6000396000f3fe6080604052600436106101145760003560e01c80638da5cb5b116100a0578063c9cd30a011610064578063c9cd30a01461031f578063d9088afc14610332578063db9020eb14610347578063dfe6712e14610369578063e0a57eb81461037e57600080fd5b80638da5cb5b14610287578063b137d629146102bf578063c43ad481146102d4578063c580ec0a146102ea578063c92d7231146102fd57600080fd5b806340585036116100e757806340585036146101d457806343020b1a146101e75780634585e33b146102065780634af498a2146102265780636e04ff0d1461025357600080fd5b806305860bdc146101195780632516f8e61461014f57806325e860a5146101835780633985d500146101a5575b600080fd5b34801561012557600080fd5b50610139610134366004611aa5565b61039e565b6040516101469190611b47565b60405180910390f35b34801561015b57600080fd5b5061016f61016a366004611aa5565b6104b8565b604051610146989796959493929190611b61565b34801561018f57600080fd5b506101a361019e366004611c85565b61076e565b005b3480156101b157600080fd5b506101c56101c0366004611aa5565b610a0d565b60405161014693929190611d32565b6101a36101e2366004611d62565b610af2565b3480156101f357600080fd5b506007545b604051908152602001610146565b34801561021257600080fd5b506101a3610221366004611dd1565b610ed4565b34801561023257600080fd5b50610246610241366004611aa5565b610ee0565b6040516101469190611eed565b34801561025f57600080fd5b5061027961026e366004611dd1565b505047151590606090565b604051610146929190611f00565b34801561029357600080fd5b506003546102a7906001600160a01b031681565b6040516001600160a01b039091168152602001610146565b3480156102cb57600080fd5b506101a36111e2565b3480156102e057600080fd5b506101f860025481565b6101a36102f8366004611f1b565b611273565b34801561030957600080fd5b50610312611590565b6040516101469190611f60565b34801561032b57600080fd5b50476101f8565b34801561033e57600080fd5b506101a361186d565b34801561035357600080fd5b5061035c611913565b6040516101469190611fc2565b34801561037557600080fd5b506008546101f8565b34801561038a57600080fd5b506101f8610399366004611aa5565b611a1b565b60408051606080820183526000808352602083015291810191909152600782815481106103cd576103cd612017565b90600052602060002090600302016040518060600160405290816000820160009054906101000a90046001600160a01b03166001600160a01b03166001600160a01b031681526020016001820154815260200160028201805461042f9061202d565b80601f016020809104026020016040519081016040528092919081815260200182805461045b9061202d565b80156104a85780601f1061047d576101008083540402835291602001916104a8565b820191906000526020600020905b81548152906001019060200180831161048b57829003601f168201915b5050505050815250509050919050565b6000606080600060606000606060008060088a815481106104db576104db612017565b90600052602060002090600802019050806000015481600101826002018360030160009054906101000a90046001600160a01b031684600401856005015486600601876007015486805461052e9061202d565b80601f016020809104026020016040519081016040528092919081815260200182805461055a9061202d565b80156105a75780601f1061057c576101008083540402835291602001916105a7565b820191906000526020600020905b81548152906001019060200180831161058a57829003601f168201915b505050505096508580546105ba9061202d565b80601f01602080910402602001604051908101604052809291908181526020018280546105e69061202d565b80156106335780601f1061060857610100808354040283529160200191610633565b820191906000526020600020905b81548152906001019060200180831161061657829003601f168201915b505050505095508380546106469061202d565b80601f01602080910402602001604051908101604052809291908181526020018280546106729061202d565b80156106bf5780601f10610694576101008083540402835291602001916106bf565b820191906000526020600020905b8154815290600101906020018083116106a257829003601f168201915b505050505093508180546106d29061202d565b80601f01602080910402602001604051908101604052809291908181526020018280546106fe9061202d565b801561074b5780601f106107205761010080835404028352916020019161074b565b820191906000526020600020905b81548152906001019060200180831161072e57829003601f168201915b505050505091509850985098509850985098509850985050919395975091939597565b600084511161077c57600080fd5b600083511161078a57600080fd5b600082511161079857600080fd5b33600090815260046020526040812054819060ff16156107f75760405162461bcd60e51b81526020600482015260156024820152741059191c995cdcc8185b1c9958591e48195e1a5cdd605a1b60448201526064015b60405180910390fd5b6005866040516108079190612067565b9081526040519081900360200190205460ff16156108605760405162461bcd60e51b8152602060048201526016602482015275155cd95c9b985b5948185b1c9958591e48195e1a5cdd60521b60448201526064016107ee565b61086e600180546001019055565b600860405180610100016040528061088560015490565b815260208082018a9052604082018990523360608301526080820188905260a0820186905260c0820187905260e090910184905282546001818101855560009485529382902083516008909202019081559082015191929091908201906108ec90826120d2565b506040820151600282019061090190826120d2565b5060608201516003820180546001600160a01b0319166001600160a01b039092169190911790556080820151600482019061093c90826120d2565b5060a0820151600582015560c0820151600682019061095b90826120d2565b5060e091909101516007909101553360009081526004602052604090819020805460ff191660019081179091559051600590610998908990612067565b908152604051908190036020019020805491151560ff199092169190911790557f1f2b5d1f5852ee1b568a3ab56bde183bd34ea4e92ab3875e469e846dbcfc406e6109e260015490565b873388888789886040516109fd989796959493929190612192565b60405180910390a1505050505050565b6000806060600060078581548110610a2757610a27612017565b906000526020600020906003020190508060000160009054906101000a90046001600160a01b0316816001015482600201808054610a649061202d565b80601f0160208091040260200160405190810160405280929190818152602001828054610a909061202d565b8015610add5780601f10610ab257610100808354040283529160200191610add565b820191906000526020600020905b815481529060010190602001808311610ac057829003601f168201915b50505050509050935093509350509193909250565b610afa611a4c565b6000819050600060088581548110610b1457610b14612017565b60009182526020909120600360089092020101546001600160a01b0316905083610b715760405162461bcd60e51b815260206004820152600e60248201526d125b9d985b1a5908185b5bdd5b9d60921b60448201526064016107ee565b3331841115610bb95760405162461bcd60e51b8152602060048201526014602482015273496e73756666696369656e742062616c616e636560601b60448201526064016107ee565b6040516323b872dd60e01b81523360048201526001600160a01b038281166024830152604482018690528316906323b872dd906064016020604051808303816000875af1158015610c0e573d6000803e3d6000fd5b505050506040513d601f19601f82011682018060405250810190610c3291906121e3565b506000816001600160a01b03163460405160006040518083038185875af1925050503d8060008114610c80576040519150601f19603f3d011682016040523d82523d6000602084013e610c85565b606091505b5050905080610ca65760405162461bcd60e51b81526004016107ee90612205565b8460088781548110610cba57610cba612017565b90600052602060002090600802016005016000828254610cda9190612233565b92505081905550600060088781548110610cf657610cf6612017565b60009182526020808320600360089093020191909101546001600160a01b0316808352600690915260408220805491935088929091610d36908490612233565b90915550506008805488908110610d4f57610d4f612017565b60009182526020909120600890910201600301546001600160a01b03163314610dad57600160088881548110610d8757610d87612017565b90600052602060002090600802016007016000828254610da79190612233565b90915550505b6040805160608101825233815242602082019081529181018a81526007805460018101825560009190915282517fa66cc928b5edb82af9bd49922954155ab7b0942694bea4ce44661d9a8736c688600390920291820180546001600160a01b0319166001600160a01b0390921691909117815593517fa66cc928b5edb82af9bd49922954155ab7b0942694bea4ce44661d9a8736c68982015590519192917fa66cc928b5edb82af9bd49922954155ab7b0942694bea4ce44661d9a8736c68a90910190610e7a90826120d2565b505050336001600160a01b03167fd6a897edbe2f5bae63386e323f717069a8974221d9297299ac544cace2d0f992428a604051610eb892919061225a565b60405180910390a250505050610ece6001600055565b50505050565b610edc6111e2565b5050565b610f3160405180610100016040528060008152602001606081526020016060815260200160006001600160a01b03168152602001606081526020016000815260200160608152602001600081525090565b60088281548110610f4457610f44612017565b90600052602060002090600802016040518061010001604052908160008201548152602001600182018054610f789061202d565b80601f0160208091040260200160405190810160405280929190818152602001828054610fa49061202d565b8015610ff15780601f10610fc657610100808354040283529160200191610ff1565b820191906000526020600020905b815481529060010190602001808311610fd457829003601f168201915b5050505050815260200160028201805461100a9061202d565b80601f01602080910402602001604051908101604052809291908181526020018280546110369061202d565b80156110835780601f1061105857610100808354040283529160200191611083565b820191906000526020600020905b81548152906001019060200180831161106657829003601f168201915b505050918352505060038201546001600160a01b031660208201526004820180546040909201916110b39061202d565b80601f01602080910402602001604051908101604052809291908181526020018280546110df9061202d565b801561112c5780601f106111015761010080835404028352916020019161112c565b820191906000526020600020905b81548152906001019060200180831161110f57829003601f168201915b505050505081526020016005820154815260200160068201805461114f9061202d565b80601f016020809104026020016040519081016040528092919081815260200182805461117b9061202d565b80156111c85780601f1061119d576101008083540402835291602001916111c8565b820191906000526020600020905b8154815290600101906020018083116111ab57829003601f168201915b505050505081526020016007820154815250509050919050565b6111ea611a4c565b478015611266576003546040516000916001600160a01b03169083908381818185875af1925050503d806000811461123e576040519150601f19603f3d011682016040523d82523d6000602084013e611243565b606091505b50509050806112645760405162461bcd60e51b81526004016107ee90612205565b505b506112716001600055565b565b61127b611a4c565b600034116112bc5760405162461bcd60e51b815260206004820152600e60248201526d125b9d985b1a5908185b5bdd5b9d60921b60448201526064016107ee565b34333110156113045760405162461bcd60e51b8152602060048201526014602482015273496e73756666696369656e742062616c616e636560601b60448201526064016107ee565b60006008828154811061131957611319612017565b60009182526020822060089190910201600301546040516001600160a01b039091169250829034908381818185875af1925050503d8060008114611379576040519150601f19603f3d011682016040523d82523d6000602084013e61137e565b606091505b505090508061139f5760405162461bcd60e51b81526004016107ee90612205565b34600884815481106113b3576113b3612017565b906000526020600020906008020160050160008282546113d39190612233565b925050819055506000600884815481106113ef576113ef612017565b60009182526020808320600360089093020191909101546001600160a01b031680835260069091526040822080549193503492909161142f908490612233565b9250508190555060016008858154811061144b5761144b612017565b9060005260206000209060080201600701600082825461146b9190612233565b90915550506040805160608101825233815242602082019081529181018781526007805460018101825560009190915282517fa66cc928b5edb82af9bd49922954155ab7b0942694bea4ce44661d9a8736c688600390920291820180546001600160a01b0319166001600160a01b0390921691909117815593517fa66cc928b5edb82af9bd49922954155ab7b0942694bea4ce44661d9a8736c68982015590519192917fa66cc928b5edb82af9bd49922954155ab7b0942694bea4ce44661d9a8736c68a9091019061153d90826120d2565b505050336001600160a01b03167fd6a897edbe2f5bae63386e323f717069a8974221d9297299ac544cace2d0f992428760405161157b92919061225a565b60405180910390a2505050610edc6001600055565b60606008805480602002602001604051908101604052809291908181526020016000905b82821015611864578382906000526020600020906008020160405180610100016040529081600082015481526020016001820180546115f29061202d565b80601f016020809104026020016040519081016040528092919081815260200182805461161e9061202d565b801561166b5780601f106116405761010080835404028352916020019161166b565b820191906000526020600020905b81548152906001019060200180831161164e57829003601f168201915b505050505081526020016002820180546116849061202d565b80601f01602080910402602001604051908101604052809291908181526020018280546116b09061202d565b80156116fd5780601f106116d2576101008083540402835291602001916116fd565b820191906000526020600020905b8154815290600101906020018083116116e057829003601f168201915b505050918352505060038201546001600160a01b0316602082015260048201805460409092019161172d9061202d565b80601f01602080910402602001604051908101604052809291908181526020018280546117599061202d565b80156117a65780601f1061177b576101008083540402835291602001916117a6565b820191906000526020600020905b81548152906001019060200180831161178957829003601f168201915b50505050508152602001600582015481526020016006820180546117c99061202d565b80601f01602080910402602001604051908101604052809291908181526020018280546117f59061202d565b80156118425780601f1061181757610100808354040283529160200191611842565b820191906000526020600020905b81548152906001019060200180831161182557829003601f168201915b50505050508152602001600782015481525050815260200190600101906115b4565b50505050905090565b611875611a4c565b60035460405147916000916001600160a01b039091169083908381818185875af1925050503d80600081146118c6576040519150601f19603f3d011682016040523d82523d6000602084013e6118cb565b606091505b50509050806112645760405162461bcd60e51b81526020600482015260146024820152732330b4b632b2103a379039b2b7321032ba3432b960611b60448201526064016107ee565b60606007805480602002602001604051908101604052809291908181526020016000905b82821015611864576000848152602090819020604080516060810182526003860290920180546001600160a01b031683526001810154938301939093526002830180549293929184019161198a9061202d565b80601f01602080910402602001604051908101604052809291908181526020018280546119b69061202d565b8015611a035780601f106119d857610100808354040283529160200191611a03565b820191906000526020600020905b8154815290600101906020018083116119e657829003601f168201915b50505050508152505081526020019060010190611937565b60008060088381548110611a3157611a31612017565b60009182526020909120600560089092020101549392505050565b600260005403611a9e5760405162461bcd60e51b815260206004820152601f60248201527f5265656e7472616e637947756172643a207265656e7472616e742063616c6c0060448201526064016107ee565b6002600055565b600060208284031215611ab757600080fd5b5035919050565b60005b83811015611ad9578181015183820152602001611ac1565b50506000910152565b60008151808452611afa816020860160208601611abe565b601f01601f19169290920160200192915050565b60018060a01b038151168252602081015160208301526000604082015160606040850152611b3f6060850182611ae2565b949350505050565b602081526000611b5a6020830184611b0e565b9392505050565b60006101008a8352806020840152611b7b8184018b611ae2565b90508281036040840152611b8f818a611ae2565b6001600160a01b038916606085015283810360808501529050611bb28188611ae2565b90508560a084015282810360c0840152611bcc8186611ae2565b9150508260e08301529998505050505050505050565b634e487b7160e01b600052604160045260246000fd5b600082601f830112611c0957600080fd5b813567ffffffffffffffff80821115611c2457611c24611be2565b604051601f8301601f19908116603f01168101908282118183101715611c4c57611c4c611be2565b81604052838152866020858801011115611c6557600080fd5b836020870160208301376000602085830101528094505050505092915050565b60008060008060808587031215611c9b57600080fd5b843567ffffffffffffffff80821115611cb357600080fd5b611cbf88838901611bf8565b95506020870135915080821115611cd557600080fd5b611ce188838901611bf8565b94506040870135915080821115611cf757600080fd5b611d0388838901611bf8565b93506060870135915080821115611d1957600080fd5b50611d2687828801611bf8565b91505092959194509250565b60018060a01b0384168152826020820152606060408201526000611d596060830184611ae2565b95945050505050565b60008060008060808587031215611d7857600080fd5b843567ffffffffffffffff811115611d8f57600080fd5b611d9b87828801611bf8565b945050602085013592506040850135915060608501356001600160a01b0381168114611dc657600080fd5b939692955090935050565b60008060208385031215611de457600080fd5b823567ffffffffffffffff80821115611dfc57600080fd5b818501915085601f830112611e1057600080fd5b813581811115611e1f57600080fd5b866020828501011115611e3157600080fd5b60209290920196919550909350505050565b6000610100825184526020830151816020860152611e6382860182611ae2565b91505060408301518482036040860152611e7d8282611ae2565b9150506060830151611e9a60608601826001600160a01b03169052565b5060808301518482036080860152611eb28282611ae2565b91505060a083015160a085015260c083015184820360c0860152611ed68282611ae2565b91505060e083015160e08501528091505092915050565b602081526000611b5a6020830184611e43565b8215158152604060208201526000611b3f6040830184611ae2565b60008060408385031215611f2e57600080fd5b823567ffffffffffffffff811115611f4557600080fd5b611f5185828601611bf8565b95602094909401359450505050565b6000602080830181845280855180835260408601915060408160051b870101925083870160005b82811015611fb557603f19888603018452611fa3858351611e43565b94509285019290850190600101611f87565b5092979650505050505050565b6000602080830181845280855180835260408601915060408160051b870101925083870160005b82811015611fb557603f19888603018452612005858351611b0e565b94509285019290850190600101611fe9565b634e487b7160e01b600052603260045260246000fd5b600181811c9082168061204157607f821691505b60208210810361206157634e487b7160e01b600052602260045260246000fd5b50919050565b60008251612079818460208701611abe565b9190910192915050565b601f8211156120cd57600081815260208120601f850160051c810160208610156120aa5750805b601f850160051c820191505b818110156120c9578281556001016120b6565b5050505b505050565b815167ffffffffffffffff8111156120ec576120ec611be2565b612100816120fa845461202d565b84612083565b602080601f831160018114612135576000841561211d5750858301515b600019600386901b1c1916600185901b1785556120c9565b600085815260208120601f198616915b8281101561216457888601518255948401946001909101908401612145565b50858210156121825787850151600019600388901b60f8161c191681555b5050505050600190811b01905550565b60006101008a83528060208401526121ac8184018b611ae2565b6001600160a01b038a166040850152838103606085015290506121cf8189611ae2565b90508281036080840152611bb28188611ae2565b6000602082840312156121f557600080fd5b81518015158114611b5a57600080fd5b6020808252601490820152732330b4b632b2103a379039b2b7321022ba3432b960611b604082015260600190565b8082018082111561225457634e487b7160e01b600052601160045260246000fd5b92915050565b828152604060208201526000611b3f6040830184611ae256fea2646970667358221220c466f137e6a70a01894205f9cb4c0a8d075d0d075bb3ac2b9cd16a83a5ed532c64736f6c63430008120033",
  "linkReferences": {},
  "deployedLinkReferences": {}
}