{
  "_format": "hh-sol-artifact-1",
  "contractName": "Donation",
  "sourceName": "contracts/Donation.sol",
  "abi": [
    {
      "inputs": [
        {
          "internalType": "uint64",
          "name": "subscriptionId",
          "type": "uint64"
        }
      ],
      "stateMutability": "nonpayable",
      "type": "constructor"
    },
    {
      "inputs": [
        {
          "internalType": "address",
          "name": "have",
          "type": "address"
        },
        {
          "internalType": "address",
          "name": "want",
          "type": "address"
        }
      ],
      "name": "OnlyCoordinatorCanFulfill",
      "type": "error"
    },
    {
      "anonymous": false,
      "inputs": [
        {
          "indexed": false,
          "internalType": "uint256",
          "name": "id",
          "type": "uint256"
        },
        {
          "indexed": false,
          "internalType": "string",
          "name": "username",
          "type": "string"
        },
        {
          "indexed": false,
          "internalType": "address payable",
          "name": "walletAddress",
          "type": "address"
        },
        {
          "indexed": false,
          "internalType": "string",
          "name": "ipfsHash",
          "type": "string"
        },
        {
          "indexed": false,
          "internalType": "string",
          "name": "userbio",
          "type": "string"
        },
        {
          "indexed": false,
          "internalType": "uint256",
          "name": "donationsReceived",
          "type": "uint256"
        },
        {
          "indexed": false,
          "internalType": "string",
          "name": "networkOption",
          "type": "string"
        },
        {
          "indexed": false,
          "internalType": "uint256",
          "name": "supporters",
          "type": "uint256"
        },
        {
          "indexed": false,
          "internalType": "bool",
          "name": "verified",
          "type": "bool"
        }
      ],
      "name": "CreatorEvent",
      "type": "event"
    },
    {
      "anonymous": false,
      "inputs": [
        {
          "indexed": true,
          "internalType": "address",
          "name": "from",
          "type": "address"
        },
        {
          "indexed": true,
          "internalType": "address",
          "name": "to",
          "type": "address"
        }
      ],
      "name": "OwnershipTransferRequested",
      "type": "event"
    },
    {
      "anonymous": false,
      "inputs": [
        {
          "indexed": true,
          "internalType": "address",
          "name": "from",
          "type": "address"
        },
        {
          "indexed": true,
          "internalType": "address",
          "name": "to",
          "type": "address"
        }
      ],
      "name": "OwnershipTransferred",
      "type": "event"
    },
    {
      "anonymous": false,
      "inputs": [
        {
          "indexed": false,
          "internalType": "uint256",
          "name": "requestId",
          "type": "uint256"
        },
        {
          "indexed": false,
          "internalType": "uint256[]",
          "name": "randomWords",
          "type": "uint256[]"
        }
      ],
      "name": "RequestFulfilled",
      "type": "event"
    },
    {
      "anonymous": false,
      "inputs": [
        {
          "indexed": false,
          "internalType": "uint256",
          "name": "requestId",
          "type": "uint256"
        },
        {
          "indexed": false,
          "internalType": "uint32",
          "name": "numWords",
          "type": "uint32"
        }
      ],
      "name": "RequestSent",
      "type": "event"
    },
    {
      "anonymous": false,
      "inputs": [
        {
          "indexed": true,
          "internalType": "address",
          "name": "from",
          "type": "address"
        },
        {
          "indexed": false,
          "internalType": "uint256",
          "name": "timestamp",
          "type": "uint256"
        },
        {
          "indexed": false,
          "internalType": "string",
          "name": "message",
          "type": "string"
        }
      ],
      "name": "SupporterEvent",
      "type": "event"
    },
    {
      "inputs": [],
      "name": "_owner",
      "outputs": [
        {
          "internalType": "address payable",
          "name": "",
          "type": "address"
        }
      ],
      "stateMutability": "view",
      "type": "function"
    },
    {
      "inputs": [],
      "name": "acceptOwnership",
      "outputs": [],
      "stateMutability": "nonpayable",
      "type": "function"
    },
    {
      "inputs": [],
      "name": "addVerifyBatch",
      "outputs": [],
      "stateMutability": "nonpayable",
      "type": "function"
    },
    {
      "inputs": [
        {
          "internalType": "bytes",
          "name": "",
          "type": "bytes"
        }
      ],
      "name": "checkUpkeep",
      "outputs": [
        {
          "internalType": "bool",
          "name": "upkeepNeeded",
          "type": "bool"
        },
        {
          "internalType": "bytes",
          "name": "",
          "type": "bytes"
        }
      ],
      "stateMutability": "view",
      "type": "function"
    },
    {
      "inputs": [],
      "name": "contractBal",
      "outputs": [
        {
          "internalType": "uint256",
          "name": "",
          "type": "uint256"
        }
      ],
      "stateMutability": "view",
      "type": "function"
    },
    {
      "inputs": [],
      "name": "contractOwnerWithdraw",
      "outputs": [],
      "stateMutability": "nonpayable",
      "type": "function"
    },
    {
      "inputs": [],
      "name": "creatorCounter",
      "outputs": [
        {
          "internalType": "uint256",
          "name": "",
          "type": "uint256"
        }
      ],
      "stateMutability": "view",
      "type": "function"
    },
    {
      "inputs": [],
      "name": "featuredCreator",
      "outputs": [
        {
          "components": [
            {
              "internalType": "uint256",
              "name": "id",
              "type": "uint256"
            },
            {
              "internalType": "string",
              "name": "username",
              "type": "string"
            },
            {
              "internalType": "string",
              "name": "ipfsHash",
              "type": "string"
            },
            {
              "internalType": "address payable",
              "name": "walletAddress",
              "type": "address"
            },
            {
              "internalType": "string",
              "name": "userbio",
              "type": "string"
            },
            {
              "internalType": "uint256",
              "name": "donationsReceived",
              "type": "uint256"
            },
            {
              "internalType": "string",
              "name": "networkOption",
              "type": "string"
            },
            {
              "internalType": "uint256",
              "name": "supporters",
              "type": "uint256"
            },
            {
              "internalType": "bool",
              "name": "verified",
              "type": "bool"
            }
          ],
          "internalType": "struct Donation.CreatorInfo[]",
          "name": "creators",
          "type": "tuple[]"
        }
      ],
      "stateMutability": "nonpayable",
      "type": "function"
    },
    {
      "inputs": [
        {
          "internalType": "uint256",
          "name": "index",
          "type": "uint256"
        }
      ],
      "name": "getCreatorBal",
      "outputs": [
        {
          "internalType": "uint256",
          "name": "",
          "type": "uint256"
        }
      ],
      "stateMutability": "view",
      "type": "function"
    },
    {
      "inputs": [],
      "name": "getCreatorCount",
      "outputs": [
        {
          "internalType": "uint256",
          "name": "",
          "type": "uint256"
        }
      ],
      "stateMutability": "view",
      "type": "function"
    },
    {
      "inputs": [
        {
          "internalType": "uint256",
          "name": "index",
          "type": "uint256"
        }
      ],
      "name": "getCreatorInfo",
      "outputs": [
        {
          "internalType": "uint256",
          "name": "id",
          "type": "uint256"
        },
        {
          "internalType": "string",
          "name": "",
          "type": "string"
        },
        {
          "internalType": "string",
          "name": "",
          "type": "string"
        },
        {
          "internalType": "address",
          "name": "",
          "type": "address"
        },
        {
          "internalType": "string",
          "name": "",
          "type": "string"
        },
        {
          "internalType": "uint256",
          "name": "",
          "type": "uint256"
        },
        {
          "internalType": "string",
          "name": "",
          "type": "string"
        },
        {
          "internalType": "uint256",
          "name": "",
          "type": "uint256"
        }
      ],
      "stateMutability": "view",
      "type": "function"
    },
    {
      "inputs": [],
      "name": "getCreatorList",
      "outputs": [
        {
          "components": [
            {
              "internalType": "uint256",
              "name": "id",
              "type": "uint256"
            },
            {
              "internalType": "string",
              "name": "username",
              "type": "string"
            },
            {
              "internalType": "string",
              "name": "ipfsHash",
              "type": "string"
            },
            {
              "internalType": "address payable",
              "name": "walletAddress",
              "type": "address"
            },
            {
              "internalType": "string",
              "name": "userbio",
              "type": "string"
            },
            {
              "internalType": "uint256",
              "name": "donationsReceived",
              "type": "uint256"
            },
            {
              "internalType": "string",
              "name": "networkOption",
              "type": "string"
            },
            {
              "internalType": "uint256",
              "name": "supporters",
              "type": "uint256"
            },
            {
              "internalType": "bool",
              "name": "verified",
              "type": "bool"
            }
          ],
          "internalType": "struct Donation.CreatorInfo[]",
          "name": "creators",
          "type": "tuple[]"
        }
      ],
      "stateMutability": "view",
      "type": "function"
    },
    {
      "inputs": [
        {
          "internalType": "uint256",
          "name": "_index",
          "type": "uint256"
        }
      ],
      "name": "getCreatorObj",
      "outputs": [
        {
          "components": [
            {
              "internalType": "uint256",
              "name": "id",
              "type": "uint256"
            },
            {
              "internalType": "string",
              "name": "username",
              "type": "string"
            },
            {
              "internalType": "string",
              "name": "ipfsHash",
              "type": "string"
            },
            {
              "internalType": "address payable",
              "name": "walletAddress",
              "type": "address"
            },
            {
              "internalType": "string",
              "name": "userbio",
              "type": "string"
            },
            {
              "internalType": "uint256",
              "name": "donationsReceived",
              "type": "uint256"
            },
            {
              "internalType": "string",
              "name": "networkOption",
              "type": "string"
            },
            {
              "internalType": "uint256",
              "name": "supporters",
              "type": "uint256"
            },
            {
              "internalType": "bool",
              "name": "verified",
              "type": "bool"
            }
          ],
          "internalType": "struct Donation.CreatorInfo",
          "name": "",
          "type": "tuple"
        }
      ],
      "stateMutability": "view",
      "type": "function"
    },
    {
      "inputs": [
        {
          "internalType": "uint256",
          "name": "_requestId",
          "type": "uint256"
        }
      ],
      "name": "getRequestStatus",
      "outputs": [
        {
          "internalType": "bool",
          "name": "fulfilled",
          "type": "bool"
        },
        {
          "internalType": "uint256[]",
          "name": "randomWords",
          "type": "uint256[]"
        }
      ],
      "stateMutability": "view",
      "type": "function"
    },
    {
      "inputs": [
        {
          "internalType": "uint256",
          "name": "index",
          "type": "uint256"
        }
      ],
      "name": "getSupportInfo",
      "outputs": [
        {
          "internalType": "address",
          "name": "_from",
          "type": "address"
        },
        {
          "internalType": "uint256",
          "name": "_timestamp",
          "type": "uint256"
        },
        {
          "internalType": "string",
          "name": "_message",
          "type": "string"
        }
      ],
      "stateMutability": "view",
      "type": "function"
    },
    {
      "inputs": [],
      "name": "getSupporterList",
      "outputs": [
        {
          "components": [
            {
              "internalType": "address",
              "name": "from",
              "type": "address"
            },
            {
              "internalType": "uint256",
              "name": "timestamp",
              "type": "uint256"
            },
            {
              "internalType": "string",
              "name": "message",
              "type": "string"
            }
          ],
          "internalType": "struct Donation.Supporter[]",
          "name": "",
          "type": "tuple[]"
        }
      ],
      "stateMutability": "view",
      "type": "function"
    },
    {
      "inputs": [
        {
          "internalType": "uint256",
          "name": "_index",
          "type": "uint256"
        }
      ],
      "name": "getSupporterObj",
      "outputs": [
        {
          "components": [
            {
              "internalType": "address",
              "name": "from",
              "type": "address"
            },
            {
              "internalType": "uint256",
              "name": "timestamp",
              "type": "uint256"
            },
            {
              "internalType": "string",
              "name": "message",
              "type": "string"
            }
          ],
          "internalType": "struct Donation.Supporter",
          "name": "",
          "type": "tuple"
        }
      ],
      "stateMutability": "view",
      "type": "function"
    },
    {
      "inputs": [],
      "name": "getSupporters",
      "outputs": [
        {
          "internalType": "uint256",
          "name": "",
          "type": "uint256"
        }
      ],
      "stateMutability": "view",
      "type": "function"
    },
    {
      "inputs": [],
      "name": "lastRequestId",
      "outputs": [
        {
          "internalType": "uint256",
          "name": "",
          "type": "uint256"
        }
      ],
      "stateMutability": "view",
      "type": "function"
    },
    {
      "inputs": [],
      "name": "owner",
      "outputs": [
        {
          "internalType": "address",
          "name": "",
          "type": "address"
        }
      ],
      "stateMutability": "view",
      "type": "function"
    },
    {
      "inputs": [
        {
          "internalType": "bytes",
          "name": "",
          "type": "bytes"
        }
      ],
      "name": "performUpkeep",
      "outputs": [],
      "stateMutability": "nonpayable",
      "type": "function"
    },
    {
      "inputs": [],
      "name": "randomWordsNum",
      "outputs": [
        {
          "internalType": "uint256",
          "name": "",
          "type": "uint256"
        }
      ],
      "stateMutability": "view",
      "type": "function"
    },
    {
      "inputs": [
        {
          "internalType": "uint256",
          "name": "requestId",
          "type": "uint256"
        },
        {
          "internalType": "uint256[]",
          "name": "randomWords",
          "type": "uint256[]"
        }
      ],
      "name": "rawFulfillRandomWords",
      "outputs": [],
      "stateMutability": "nonpayable",
      "type": "function"
    },
    {
      "inputs": [
        {
          "internalType": "uint256",
          "name": "",
          "type": "uint256"
        }
      ],
      "name": "requestIds",
      "outputs": [
        {
          "internalType": "uint256",
          "name": "",
          "type": "uint256"
        }
      ],
      "stateMutability": "view",
      "type": "function"
    },
    {
      "inputs": [],
      "name": "requestRandomWords",
      "outputs": [
        {
          "internalType": "uint256",
          "name": "requestId",
          "type": "uint256"
        }
      ],
      "stateMutability": "nonpayable",
      "type": "function"
    },
    {
      "inputs": [
        {
          "internalType": "uint256",
          "name": "",
          "type": "uint256"
        }
      ],
      "name": "s_requests",
      "outputs": [
        {
          "internalType": "bool",
          "name": "fulfilled",
          "type": "bool"
        },
        {
          "internalType": "bool",
          "name": "exists",
          "type": "bool"
        }
      ],
      "stateMutability": "view",
      "type": "function"
    },
    {
      "inputs": [],
      "name": "sendContractBalanceToOwner",
      "outputs": [],
      "stateMutability": "nonpayable",
      "type": "function"
    },
    {
      "inputs": [
        {
          "internalType": "string",
          "name": "_message",
          "type": "string"
        },
        {
          "internalType": "uint256",
          "name": "_index",
          "type": "uint256"
        }
      ],
      "name": "sendTip",
      "outputs": [],
      "stateMutability": "payable",
      "type": "function"
    },
    {
      "inputs": [
        {
          "internalType": "string",
          "name": "_message",
          "type": "string"
        },
        {
          "internalType": "uint256",
          "name": "_index",
          "type": "uint256"
        },
        {
          "internalType": "uint256",
          "name": "_amount",
          "type": "uint256"
        },
        {
          "internalType": "address",
          "name": "_tokenAddress",
          "type": "address"
        }
      ],
      "name": "sendTipERC20",
      "outputs": [],
      "stateMutability": "payable",
      "type": "function"
    },
    {
      "inputs": [
        {
          "internalType": "string",
          "name": "_username",
          "type": "string"
        },
        {
          "internalType": "string",
          "name": "_ipfsHash",
          "type": "string"
        },
        {
          "internalType": "string",
          "name": "_userbio",
          "type": "string"
        },
        {
          "internalType": "string",
          "name": "_networkOption",
          "type": "string"
        }
      ],
      "name": "setCreatorDetail",
      "outputs": [],
      "stateMutability": "nonpayable",
      "type": "function"
    },
    {
      "inputs": [
        {
          "internalType": "address",
          "name": "to",
          "type": "address"
        }
      ],
      "name": "transferOwnership",
      "outputs": [],
      "stateMutability": "nonpayable",
      "type": "function"
    }
  ],
  "bytecode": "0x60a06040527f474e34a077df58807dbe9c96d3c009b23b3c6d0cce433e59bbf5b34f823bc56c600955600a80546001600160501b03191666030003000186a01790553480156200004e57600080fd5b50604051620039cb380380620039cb833981016040819052620000719162000229565b60016000908155737a1bac17ccc5b313516c5e16fb24f7659aa5ebed6080523390819081620000e75760405162461bcd60e51b815260206004820152601860248201527f43616e6e6f7420736574206f776e657220746f207a65726f000000000000000060448201526064015b60405180910390fd5b600180546001600160a01b0319166001600160a01b03848116919091179091558116156200011a576200011a816200017d565b5050600680546001600160401b03909316600160a01b026001600160e01b031990931692909217737a1bac17ccc5b313516c5e16fb24f7659aa5ebed1790915550600c80546001600160a01b0319163317905561012c600d5542600e556200025b565b336001600160a01b03821603620001d75760405162461bcd60e51b815260206004820152601760248201527f43616e6e6f74207472616e7366657220746f2073656c660000000000000000006044820152606401620000de565b600280546001600160a01b0319166001600160a01b03838116918217909255600154604051919216907fed8889f560326eb138920d842192f0eb3dd22b4f139c87a2c57538e05bae127890600090a350565b6000602082840312156200023c57600080fd5b81516001600160401b03811681146200025457600080fd5b9392505050565b60805161374d6200027e600039600081816106f9015261073b015261374d6000f3fe6080604052600436106101d85760003560e01c8063b137d62911610102578063d9088afc11610095578063e0c8628911610064578063e0c8628914610574578063f2fde38b14610589578063fc2a88c3146105a9578063fe47795e146105bf57600080fd5b8063d9088afc14610508578063db9020eb1461051d578063dfe6712e1461053f578063e0a57eb81461055457600080fd5b8063c580ec0a116100d1578063c580ec0a14610492578063c92d7231146104a5578063c9cd30a0146104c7578063d8a4676f146104da57600080fd5b8063b137d62914610432578063b2bdfa7b14610447578063bc06026614610467578063c43ad4811461047c57600080fd5b80634585e33b1161017a5780638796ba8c116101495780638796ba8c1461037a5780638da5cb5b1461039a5780639a8ff87c146103cc578063a168fa89146103e257600080fd5b80634585e33b146102ea5780634af498a21461030a5780636e04ff0d1461033757806379ba50971461036557600080fd5b806325e860a5116101b657806325e860a5146102695780633985d5001461028957806340585036146102b857806343020b1a146102cb57600080fd5b806305860bdc146101dd5780631fe543e3146102135780632516f8e614610235575b600080fd5b3480156101e957600080fd5b506101fd6101f8366004612c55565b6105d4565b60405161020a9190612cf7565b60405180910390f35b34801561021f57600080fd5b5061023361022e366004612d58565b6106ee565b005b34801561024157600080fd5b50610255610250366004612c55565b61077b565b60405161020a989796959493929190612e0a565b34801561027557600080fd5b50610233610284366004612efb565b610a31565b34801561029557600080fd5b506102a96102a4366004612c55565b610cf1565b60405161020a93929190612fa8565b6102336102c6366004612ff4565b610dd6565b3480156102d757600080fd5b506012545b60405190815260200161020a565b3480156102f657600080fd5b50610233610305366004613055565b6111b8565b34801561031657600080fd5b5061032a610325366004612c55565b6111e7565b60405161020a9190613185565b34801561034357600080fd5b50610357610352366004613055565b611501565b60405161020a929190613198565b34801561037157600080fd5b5061023361158a565b34801561038657600080fd5b506102dc610395366004612c55565b611638565b3480156103a657600080fd5b506001546001600160a01b03165b6040516001600160a01b03909116815260200161020a565b3480156103d857600080fd5b506102dc600b5481565b3480156103ee57600080fd5b5061041b6103fd366004612c55565b60056020526000908152604090205460ff8082169161010090041682565b60408051921515835290151560208301520161020a565b34801561043e57600080fd5b50610233611659565b34801561045357600080fd5b50600c546103b4906001600160a01b031681565b34801561047357600080fd5b506102336116ea565b34801561048857600080fd5b506102dc60045481565b6102336104a03660046131b3565b61174f565b3480156104b157600080fd5b506104ba611a6c565b60405161020a91906131f8565b3480156104d357600080fd5b50476102dc565b3480156104e657600080fd5b506104fa6104f5366004612c55565b611d5e565b60405161020a929190613295565b34801561051457600080fd5b50610233611e52565b34801561052957600080fd5b50610532611ef8565b60405161020a91906132b0565b34801561054b57600080fd5b506013546102dc565b34801561056057600080fd5b506102dc61056f366004612c55565b612000565b34801561058057600080fd5b506102dc612031565b34801561059557600080fd5b506102336105a4366004613305565b6121f6565b3480156105b557600080fd5b506102dc60085481565b3480156105cb57600080fd5b506104ba612207565b604080516060808201835260008083526020830152918101919091526012828154811061060357610603613320565b90600052602060002090600302016040518060600160405290816000820160009054906101000a90046001600160a01b03166001600160a01b03166001600160a01b031681526020016001820154815260200160028201805461066590613336565b80601f016020809104026020016040519081016040528092919081815260200182805461069190613336565b80156106de5780601f106106b3576101008083540402835291602001916106de565b820191906000526020600020905b8154815290600101906020018083116106c157829003601f168201915b5050505050815250509050919050565b336001600160a01b037f0000000000000000000000000000000000000000000000000000000000000000161461076d5760405163073e64fd60e21b81523360048201526001600160a01b037f00000000000000000000000000000000000000000000000000000000000000001660248201526044015b60405180910390fd5b6107778282612643565b5050565b6000606080600060606000606060008060138a8154811061079e5761079e613320565b90600052602060002090600902019050806000015481600101826002018360030160009054906101000a90046001600160a01b03168460040185600501548660060187600701548680546107f190613336565b80601f016020809104026020016040519081016040528092919081815260200182805461081d90613336565b801561086a5780601f1061083f5761010080835404028352916020019161086a565b820191906000526020600020905b81548152906001019060200180831161084d57829003601f168201915b5050505050965085805461087d90613336565b80601f01602080910402602001604051908101604052809291908181526020018280546108a990613336565b80156108f65780601f106108cb576101008083540402835291602001916108f6565b820191906000526020600020905b8154815290600101906020018083116108d957829003601f168201915b5050505050955083805461090990613336565b80601f016020809104026020016040519081016040528092919081815260200182805461093590613336565b80156109825780601f1061095757610100808354040283529160200191610982565b820191906000526020600020905b81548152906001019060200180831161096557829003601f168201915b5050505050935081805461099590613336565b80601f01602080910402602001604051908101604052809291908181526020018280546109c190613336565b8015610a0e5780601f106109e357610100808354040283529160200191610a0e565b820191906000526020600020905b8154815290600101906020018083116109f157829003601f168201915b505050505091509850985098509850985098509850985050919395975091939597565b6000845111610a3f57600080fd5b6000835111610a4d57600080fd5b6000825111610a5b57600080fd5b336000908152600f60205260408120548190819060ff1615610ab75760405162461bcd60e51b81526020600482015260156024820152741059191c995cdcc8185b1c9958591e48195e1a5cdd605a1b6044820152606401610764565b601087604051610ac79190613370565b9081526040519081900360200190205460ff1615610b205760405162461bcd60e51b8152602060048201526016602482015275155cd95c9b985b5948185b1c9958591e48195e1a5cdd60521b6044820152606401610764565b610b2e600380546001019055565b6013604051806101200160405280610b4560035490565b815260208082018b9052604082018a90523360608301526080820189905260a0820187905260c0820188905260e08201869052841515610100909201919091528254600181810185556000948552938290208351600990920201908155908201519192909190820190610bb890826133da565b5060408201516002820190610bcd90826133da565b5060608201516003820180546001600160a01b0319166001600160a01b0390921691909117905560808201516004820190610c0890826133da565b5060a0820151600582015560c08201516006820190610c2790826133da565b5060e08201516007820155610100909101516008909101805491151560ff19928316179055336000908152600f6020526040908190208054909216600190811790925551601090610c79908a90613370565b908152604051908190036020019020805491151560ff199092169190911790557f037dc99877f107637f52d4254c3708478fcf54ee2a2011f7192cff3fb27cd53a610cc360035490565b88338989888a8989604051610ce09998979695949392919061349a565b60405180910390a150505050505050565b6000806060600060128581548110610d0b57610d0b613320565b906000526020600020906003020190508060000160009054906101000a90046001600160a01b0316816001015482600201808054610d4890613336565b80601f0160208091040260200160405190810160405280929190818152602001828054610d7490613336565b8015610dc15780601f10610d9657610100808354040283529160200191610dc1565b820191906000526020600020905b815481529060010190602001808311610da457829003601f168201915b50505050509050935093509350509193909250565b610dde612714565b6000819050600060138581548110610df857610df8613320565b60009182526020909120600360099092020101546001600160a01b0316905083610e555760405162461bcd60e51b815260206004820152600e60248201526d125b9d985b1a5908185b5bdd5b9d60921b6044820152606401610764565b3331841115610e9d5760405162461bcd60e51b8152602060048201526014602482015273496e73756666696369656e742062616c616e636560601b6044820152606401610764565b6040516323b872dd60e01b81523360048201526001600160a01b038281166024830152604482018690528316906323b872dd906064016020604051808303816000875af1158015610ef2573d6000803e3d6000fd5b505050506040513d601f19601f82011682018060405250810190610f169190613524565b506000816001600160a01b03163460405160006040518083038185875af1925050503d8060008114610f64576040519150601f19603f3d011682016040523d82523d6000602084013e610f69565b606091505b5050905080610f8a5760405162461bcd60e51b815260040161076490613546565b8460138781548110610f9e57610f9e613320565b90600052602060002090600902016005016000828254610fbe919061358a565b92505081905550600060138781548110610fda57610fda613320565b60009182526020808320600360099093020191909101546001600160a01b031680835260119091526040822080549193508892909161101a90849061358a565b9091555050601380548890811061103357611033613320565b60009182526020909120600990910201600301546001600160a01b031633146110915760016013888154811061106b5761106b613320565b9060005260206000209060090201600701600082825461108b919061358a565b90915550505b6040805160608101825233815242602082019081529181018a81526012805460018101825560009190915282517fbb8a6a4669ba250d26cd7a459eca9d215f8307e33aebe50379bc5a3617ec3444600390920291820180546001600160a01b0319166001600160a01b0390921691909117815593517fbb8a6a4669ba250d26cd7a459eca9d215f8307e33aebe50379bc5a3617ec344582015590519192917fbb8a6a4669ba250d26cd7a459eca9d215f8307e33aebe50379bc5a3617ec34469091019061115e90826133da565b505050336001600160a01b03167fd6a897edbe2f5bae63386e323f717069a8974221d9297299ac544cace2d0f992428a60405161119c9291906135a3565b60405180910390a2505050506111b26001600055565b50505050565b6111c06116ea565b600d54600e546111d090426135bc565b11156107775742600e556111e2612031565b505050565b61124160405180610120016040528060008152602001606081526020016060815260200160006001600160a01b03168152602001606081526020016000815260200160608152602001600081526020016000151581525090565b6013828154811061125457611254613320565b9060005260206000209060090201604051806101200160405290816000820154815260200160018201805461128890613336565b80601f01602080910402602001604051908101604052809291908181526020018280546112b490613336565b80156113015780601f106112d657610100808354040283529160200191611301565b820191906000526020600020905b8154815290600101906020018083116112e457829003601f168201915b5050505050815260200160028201805461131a90613336565b80601f016020809104026020016040519081016040528092919081815260200182805461134690613336565b80156113935780601f1061136857610100808354040283529160200191611393565b820191906000526020600020905b81548152906001019060200180831161137657829003601f168201915b505050918352505060038201546001600160a01b031660208201526004820180546040909201916113c390613336565b80601f01602080910402602001604051908101604052809291908181526020018280546113ef90613336565b801561143c5780601f106114115761010080835404028352916020019161143c565b820191906000526020600020905b81548152906001019060200180831161141f57829003601f168201915b505050505081526020016005820154815260200160068201805461145f90613336565b80601f016020809104026020016040519081016040528092919081815260200182805461148b90613336565b80156114d85780601f106114ad576101008083540402835291602001916114d8565b820191906000526020600020905b8154815290600101906020018083116114bb57829003601f168201915b50505091835250506007820154602082015260089091015460ff16151560409091015292915050565b6000606060005b611510611a6c565b518110156115675760006013828154811061152d5761152d613320565b90600052602060002090600902019050600081600501541115611554576001935050611567565b508061155f816135cf565b915050611508565b5081806115815750600d54600e5461157f90426135bc565b115b91509250929050565b6002546001600160a01b031633146115dd5760405162461bcd60e51b815260206004820152601660248201527526bab9ba10313290383937b837b9b2b21037bbb732b960511b6044820152606401610764565b600180546001600160a01b0319808216339081179093556002805490911690556040516001600160a01b03909116919082907f8be0079c531659141344cd1fd0a4f28419497f9722a3daafe3b4186f6b6457e090600090a350565b6007818154811061164857600080fd5b600091825260209091200154905081565b611661612714565b4780156116dd57600c546040516000916001600160a01b03169083908381818185875af1925050503d80600081146116b5576040519150601f19603f3d011682016040523d82523d6000602084013e6116ba565b606091505b50509050806116db5760405162461bcd60e51b815260040161076490613546565b505b506116e86001600055565b565b60005b60135481101561174c5760006013828154811061170c5761170c613320565b906000526020600020906009020190506000816005015411156117395760088101805460ff191660011790555b5080611744816135cf565b9150506116ed565b50565b611757612714565b600034116117985760405162461bcd60e51b815260206004820152600e60248201526d125b9d985b1a5908185b5bdd5b9d60921b6044820152606401610764565b34333110156117e05760405162461bcd60e51b8152602060048201526014602482015273496e73756666696369656e742062616c616e636560601b6044820152606401610764565b6000601382815481106117f5576117f5613320565b60009182526020822060099190910201600301546040516001600160a01b039091169250829034908381818185875af1925050503d8060008114611855576040519150601f19603f3d011682016040523d82523d6000602084013e61185a565b606091505b505090508061187b5760405162461bcd60e51b815260040161076490613546565b346013848154811061188f5761188f613320565b906000526020600020906009020160050160008282546118af919061358a565b925050819055506000601384815481106118cb576118cb613320565b60009182526020808320600360099093020191909101546001600160a01b031680835260119091526040822080549193503492909161190b90849061358a565b9250508190555060016013858154811061192757611927613320565b90600052602060002090600902016007016000828254611947919061358a565b90915550506040805160608101825233815242602082019081529181018781526012805460018101825560009190915282517fbb8a6a4669ba250d26cd7a459eca9d215f8307e33aebe50379bc5a3617ec3444600390920291820180546001600160a01b0319166001600160a01b0390921691909117815593517fbb8a6a4669ba250d26cd7a459eca9d215f8307e33aebe50379bc5a3617ec344582015590519192917fbb8a6a4669ba250d26cd7a459eca9d215f8307e33aebe50379bc5a3617ec344690910190611a1990826133da565b505050336001600160a01b03167fd6a897edbe2f5bae63386e323f717069a8974221d9297299ac544cace2d0f9924287604051611a579291906135a3565b60405180910390a25050506107776001600055565b60606013805480602002602001604051908101604052809291908181526020016000905b82821015611d5557838290600052602060002090600902016040518061012001604052908160008201548152602001600182018054611ace90613336565b80601f0160208091040260200160405190810160405280929190818152602001828054611afa90613336565b8015611b475780601f10611b1c57610100808354040283529160200191611b47565b820191906000526020600020905b815481529060010190602001808311611b2a57829003601f168201915b50505050508152602001600282018054611b6090613336565b80601f0160208091040260200160405190810160405280929190818152602001828054611b8c90613336565b8015611bd95780601f10611bae57610100808354040283529160200191611bd9565b820191906000526020600020905b815481529060010190602001808311611bbc57829003601f168201915b505050918352505060038201546001600160a01b03166020820152600482018054604090920191611c0990613336565b80601f0160208091040260200160405190810160405280929190818152602001828054611c3590613336565b8015611c825780601f10611c5757610100808354040283529160200191611c82565b820191906000526020600020905b815481529060010190602001808311611c6557829003601f168201915b5050505050815260200160058201548152602001600682018054611ca590613336565b80601f0160208091040260200160405190810160405280929190818152602001828054611cd190613336565b8015611d1e5780601f10611cf357610100808354040283529160200191611d1e565b820191906000526020600020905b815481529060010190602001808311611d0157829003601f168201915b5050509183525050600782015460208083019190915260089092015460ff1615156040909101529082526001929092019101611a90565b50505050905090565b600081815260056020526040812054606090610100900460ff16611db85760405162461bcd60e51b81526020600482015260116024820152701c995c5d595cdd081b9bdd08199bdd5b99607a1b6044820152606401610764565b60008381526005602090815260408083208151606081018352815460ff8082161515835261010090910416151581850152600182018054845181870281018701865281815292959394860193830182828015611e3357602002820191906000526020600020905b815481526020019060010190808311611e1f575b5050505050815250509050806000015181604001519250925050915091565b611e5a612714565b600c5460405147916000916001600160a01b039091169083908381818185875af1925050503d8060008114611eab576040519150601f19603f3d011682016040523d82523d6000602084013e611eb0565b606091505b50509050806116db5760405162461bcd60e51b81526020600482015260146024820152732330b4b632b2103a379039b2b7321032ba3432b960611b6044820152606401610764565b60606012805480602002602001604051908101604052809291908181526020016000905b82821015611d55576000848152602090819020604080516060810182526003860290920180546001600160a01b0316835260018101549383019390935260028301805492939291840191611f6f90613336565b80601f0160208091040260200160405190810160405280929190818152602001828054611f9b90613336565b8015611fe85780601f10611fbd57610100808354040283529160200191611fe8565b820191906000526020600020905b815481529060010190602001808311611fcb57829003601f168201915b50505050508152505081526020019060010190611f1c565b6000806013838154811061201657612016613320565b60009182526020909120600560099092020101549392505050565b600061203b61276d565b600654600954600a546040516305d3b1d360e41b81526004810192909252600160a01b830467ffffffffffffffff166024830152640100000000810461ffff16604483015263ffffffff808216606484015266010000000000009091041660848201526001600160a01b0390911690635d3b1d309060a4016020604051808303816000875af11580156120d2573d6000803e3d6000fd5b505050506040513d601f19601f820116820180604052508101906120f691906135e8565b6040805160608101825260008082526001602080840182815285518481528083018752858701908152878552600583529590932084518154945161ffff1990951690151561ff0019161761010094151594909402939093178355935180519596509294919361216b9391850192910190612bf5565b5050600780546001810182556000919091527fa66cc928b5edb82af9bd49922954155ab7b0942694bea4ce44661d9a8736c68801829055506008819055600a5460408051838152660100000000000090920463ffffffff1660208301527fcc58b13ad3eab50626c6a6300b1d139cd6ebb1688a7cced9461c2f7e762665ee910160405180910390a190565b6121fe61276d565b61174c816127c0565b60606000612213612031565b601454600b549192506000916122299190613601565b905060006014828154811061224057612240613320565b60009182526020822060148054600181810183559190945260099283029091018054939092027fce6d7b5282bd9a3661ae061feed1dbda4e52ab073b1f9285be6e155d9c38d4ec81019384559193508392917fce6d7b5282bd9a3661ae061feed1dbda4e52ab073b1f9285be6e155d9c38d4ed01906122c190840182613623565b506002818101906122d490840182613623565b5060038281015490820180546001600160a01b0319166001600160a01b0390921691909117905560048082019061230d90840182613623565b50600582015481600501556006820181600601908161232c9190613623565b50600782810154908201556008918201549101805460ff191660ff9092161515919091179055601480546040805160208084028201810190925282815292919060009084015b82821015612637578382906000526020600020906009020160405180610120016040529081600082015481526020016001820180546123b090613336565b80601f01602080910402602001604051908101604052809291908181526020018280546123dc90613336565b80156124295780601f106123fe57610100808354040283529160200191612429565b820191906000526020600020905b81548152906001019060200180831161240c57829003601f168201915b5050505050815260200160028201805461244290613336565b80601f016020809104026020016040519081016040528092919081815260200182805461246e90613336565b80156124bb5780601f10612490576101008083540402835291602001916124bb565b820191906000526020600020905b81548152906001019060200180831161249e57829003601f168201915b505050918352505060038201546001600160a01b031660208201526004820180546040909201916124eb90613336565b80601f016020809104026020016040519081016040528092919081815260200182805461251790613336565b80156125645780601f1061253957610100808354040283529160200191612564565b820191906000526020600020905b81548152906001019060200180831161254757829003601f168201915b505050505081526020016005820154815260200160068201805461258790613336565b80601f01602080910402602001604051908101604052809291908181526020018280546125b390613336565b80156126005780601f106125d557610100808354040283529160200191612600565b820191906000526020600020905b8154815290600101906020018083116125e357829003601f168201915b5050509183525050600782015460208083019190915260089092015460ff1615156040909101529082526001929092019101612372565b50505050935050505090565b600082815260056020526040902054610100900460ff1661269a5760405162461bcd60e51b81526020600482015260116024820152701c995c5d595cdd081b9bdd08199bdd5b99607a1b6044820152606401610764565b6000828152600560209081526040909120805460ff19166001908117825583516126cb939290910191840190612bf5565b506126d760038261286a565b7ffe2e2d779dba245964d4e3ef9b994be63856fd568bf7d3ca9e224755cb1bd54d82826040516127089291906136fe565b60405180910390a15050565b6002600054036127665760405162461bcd60e51b815260206004820152601f60248201527f5265656e7472616e637947756172643a207265656e7472616e742063616c6c006044820152606401610764565b6002600055565b6001546001600160a01b031633146116e85760405162461bcd60e51b815260206004820152601660248201527527b7363c9031b0b63630b1363290313c9037bbb732b960511b6044820152606401610764565b336001600160a01b038216036128185760405162461bcd60e51b815260206004820152601760248201527f43616e6e6f74207472616e7366657220746f2073656c660000000000000000006044820152606401610764565b600280546001600160a01b0319166001600160a01b03838116918217909255600154604051919216907fed8889f560326eb138920d842192f0eb3dd22b4f139c87a2c57538e05bae127890600090a350565b6013548211156128bc5760405162461bcd60e51b815260206004820152601c60248201527f436f756e74206578636565647320746f74616c2063726561746f7273000000006044820152606401610764565b60135482905b81156111b2576128d36001826135bc565b601354845191925060009185906128ea9085613601565b815181106128fa576128fa613320565b602002602001015161290c9190613601565b90506129188282612a10565b60146013838154811061292d5761292d613320565b60009182526020808320845460018181018755958552919093206009928302909301805491909202909201918255918181019061296c90840182613623565b5060028181019061297f90840182613623565b5060038281015490820180546001600160a01b0319166001600160a01b039092169190911790556004808201906129b890840182613623565b5060058201548160050155600682018160060190816129d79190613623565b50600782810154908201556008918201549101805460ff191660ff9092161515919091179055612a086001846135bc565b9250506128c2565b600060138381548110612a2557612a25613320565b9060005260206000209060090201905060138281548110612a4857612a48613320565b906000526020600020906009020160138481548110612a6957612a69613320565b600091825260209091208254600990920201908155600180820190612a9090840182613623565b50600281810190612aa390840182613623565b5060038281015490820180546001600160a01b0319166001600160a01b03909216919091179055600480820190612adc90840182613623565b506005820154816005015560068201816006019081612afb9190613623565b50600782810154908201556008918201549101805460ff191660ff90921615159190911790556013805482919084908110612b3857612b38613320565b600091825260209091208254600990920201908155600180820190612b5f90840182613623565b50600281810190612b7290840182613623565b5060038281015490820180546001600160a01b0319166001600160a01b03909216919091179055600480820190612bab90840182613623565b506005820154816005015560068201816006019081612bca9190613623565b50600782810154908201556008918201549101805460ff191660ff9092161515919091179055505050565b828054828255906000526020600020908101928215612c30579160200282015b82811115612c30578251825591602001919060010190612c15565b50612c3c929150612c40565b5090565b5b80821115612c3c5760008155600101612c41565b600060208284031215612c6757600080fd5b5035919050565b60005b83811015612c89578181015183820152602001612c71565b50506000910152565b60008151808452612caa816020860160208601612c6e565b601f01601f19169290920160200192915050565b60018060a01b038151168252602081015160208301526000604082015160606040850152612cef6060850182612c92565b949350505050565b602081526000612d0a6020830184612cbe565b9392505050565b634e487b7160e01b600052604160045260246000fd5b604051601f8201601f1916810167ffffffffffffffff81118282101715612d5057612d50612d11565b604052919050565b60008060408385031215612d6b57600080fd5b8235915060208084013567ffffffffffffffff80821115612d8b57600080fd5b818601915086601f830112612d9f57600080fd5b813581811115612db157612db1612d11565b8060051b9150612dc2848301612d27565b8181529183018401918481019089841115612ddc57600080fd5b938501935b83851015612dfa57843582529385019390850190612de1565b8096505050505050509250929050565b60006101008a8352806020840152612e248184018b612c92565b90508281036040840152612e38818a612c92565b6001600160a01b038916606085015283810360808501529050612e5b8188612c92565b90508560a084015282810360c0840152612e758186612c92565b9150508260e08301529998505050505050505050565b600082601f830112612e9c57600080fd5b813567ffffffffffffffff811115612eb657612eb6612d11565b612ec9601f8201601f1916602001612d27565b818152846020838601011115612ede57600080fd5b816020850160208301376000918101602001919091529392505050565b60008060008060808587031215612f1157600080fd5b843567ffffffffffffffff80821115612f2957600080fd5b612f3588838901612e8b565b95506020870135915080821115612f4b57600080fd5b612f5788838901612e8b565b94506040870135915080821115612f6d57600080fd5b612f7988838901612e8b565b93506060870135915080821115612f8f57600080fd5b50612f9c87828801612e8b565b91505092959194509250565b60018060a01b0384168152826020820152606060408201526000612fcf6060830184612c92565b95945050505050565b80356001600160a01b0381168114612fef57600080fd5b919050565b6000806000806080858703121561300a57600080fd5b843567ffffffffffffffff81111561302157600080fd5b61302d87828801612e8b565b945050602085013592506040850135915061304a60608601612fd8565b905092959194509250565b6000806020838503121561306857600080fd5b823567ffffffffffffffff8082111561308057600080fd5b818501915085601f83011261309457600080fd5b8135818111156130a357600080fd5b8660208285010111156130b557600080fd5b60209290920196919550909350505050565b60006101208251845260208301518160208601526130e782860182612c92565b915050604083015184820360408601526131018282612c92565b915050606083015161311e60608601826001600160a01b03169052565b50608083015184820360808601526131368282612c92565b91505060a083015160a085015260c083015184820360c086015261315a8282612c92565b91505060e083015160e08501526101008084015161317b8287018215159052565b5090949350505050565b602081526000612d0a60208301846130c7565b8215158152604060208201526000612cef6040830184612c92565b600080604083850312156131c657600080fd5b823567ffffffffffffffff8111156131dd57600080fd5b6131e985828601612e8b565b95602094909401359450505050565b6000602080830181845280855180835260408601915060408160051b870101925083870160005b8281101561324d57603f1988860301845261323b8583516130c7565b9450928501929085019060010161321f565b5092979650505050505050565b600081518084526020808501945080840160005b8381101561328a5781518752958201959082019060010161326e565b509495945050505050565b8215158152604060208201526000612cef604083018461325a565b6000602080830181845280855180835260408601915060408160051b870101925083870160005b8281101561324d57603f198886030184526132f3858351612cbe565b945092850192908501906001016132d7565b60006020828403121561331757600080fd5b612d0a82612fd8565b634e487b7160e01b600052603260045260246000fd5b600181811c9082168061334a57607f821691505b60208210810361336a57634e487b7160e01b600052602260045260246000fd5b50919050565b60008251613382818460208701612c6e565b9190910192915050565b601f8211156111e257600081815260208120601f850160051c810160208610156133b35750805b601f850160051c820191505b818110156133d2578281556001016133bf565b505050505050565b815167ffffffffffffffff8111156133f4576133f4612d11565b613408816134028454613336565b8461338c565b602080601f83116001811461343d57600084156134255750858301515b600019600386901b1c1916600185901b1785556133d2565b600085815260208120601f198616915b8281101561346c5788860151825594840194600190910190840161344d565b508582101561348a5787850151600019600388901b60f8161c191681555b5050505050600190811b01905550565b60006101208b83528060208401526134b48184018c612c92565b6001600160a01b038b166040850152838103606085015290506134d7818a612c92565b905082810360808401526134eb8189612c92565b90508660a084015282810360c08401526135058187612c92565b60e0840195909552505090151561010090910152979650505050505050565b60006020828403121561353657600080fd5b81518015158114612d0a57600080fd5b6020808252601490820152732330b4b632b2103a379039b2b7321022ba3432b960611b604082015260600190565b634e487b7160e01b600052601160045260246000fd5b8082018082111561359d5761359d613574565b92915050565b828152604060208201526000612cef6040830184612c92565b8181038181111561359d5761359d613574565b6000600182016135e1576135e1613574565b5060010190565b6000602082840312156135fa57600080fd5b5051919050565b60008261361e57634e487b7160e01b600052601260045260246000fd5b500690565b81810361362e575050565b6136388254613336565b67ffffffffffffffff81111561365057613650612d11565b61365e816134028454613336565b6000601f821160018114613692576000831561367a5750848201545b600019600385901b1c1916600184901b1784556136f7565b600085815260209020601f19841690600086815260209020845b838110156136cc57828601548255600195860195909101906020016136ac565b50858310156136ea5781850154600019600388901b60f8161c191681555b50505060018360011b0184555b5050505050565b828152604060208201526000612cef604083018461325a56fea264697066735822122082724c34073224fbf2c12710bfd7924681588aa6fe1c3fff3eaa183e1e6908c664736f6c63430008120033",
  "linkReferences": {},
  "deployedLinkReferences": {}
}