{
  "_format": "hh-sol-artifact-1",
  "contractName": "Donation",
  "sourceName": "contracts/Donation.sol",
  "abi": [
    {
      "inputs": [
        {
          "internalType": "uint64",
          "name": "subscriptionId",
          "type": "uint64"
        }
      ],
      "stateMutability": "nonpayable",
      "type": "constructor"
    },
    {
      "inputs": [
        {
          "internalType": "address",
          "name": "have",
          "type": "address"
        },
        {
          "internalType": "address",
          "name": "want",
          "type": "address"
        }
      ],
      "name": "OnlyCoordinatorCanFulfill",
      "type": "error"
    },
    {
      "anonymous": false,
      "inputs": [
        {
          "indexed": false,
          "internalType": "uint256",
          "name": "id",
          "type": "uint256"
        },
        {
          "indexed": false,
          "internalType": "string",
          "name": "username",
          "type": "string"
        },
        {
          "indexed": false,
          "internalType": "address payable",
          "name": "walletAddress",
          "type": "address"
        },
        {
          "indexed": false,
          "internalType": "string",
          "name": "ipfsHash",
          "type": "string"
        },
        {
          "indexed": false,
          "internalType": "string",
          "name": "userbio",
          "type": "string"
        },
        {
          "indexed": false,
          "internalType": "uint256",
          "name": "donationsReceived",
          "type": "uint256"
        },
        {
          "indexed": false,
          "internalType": "string",
          "name": "networkOption",
          "type": "string"
        },
        {
          "indexed": false,
          "internalType": "uint256",
          "name": "supporters",
          "type": "uint256"
        },
        {
          "indexed": false,
          "internalType": "bool",
          "name": "verified",
          "type": "bool"
        }
      ],
      "name": "CreatorEvent",
      "type": "event"
    },
    {
      "anonymous": false,
      "inputs": [
        {
          "indexed": true,
          "internalType": "address",
          "name": "from",
          "type": "address"
        },
        {
          "indexed": true,
          "internalType": "address",
          "name": "to",
          "type": "address"
        }
      ],
      "name": "OwnershipTransferRequested",
      "type": "event"
    },
    {
      "anonymous": false,
      "inputs": [
        {
          "indexed": true,
          "internalType": "address",
          "name": "from",
          "type": "address"
        },
        {
          "indexed": true,
          "internalType": "address",
          "name": "to",
          "type": "address"
        }
      ],
      "name": "OwnershipTransferred",
      "type": "event"
    },
    {
      "anonymous": false,
      "inputs": [
        {
          "indexed": false,
          "internalType": "uint256",
          "name": "requestId",
          "type": "uint256"
        },
        {
          "indexed": false,
          "internalType": "uint256[]",
          "name": "randomWords",
          "type": "uint256[]"
        }
      ],
      "name": "RequestFulfilled",
      "type": "event"
    },
    {
      "anonymous": false,
      "inputs": [
        {
          "indexed": false,
          "internalType": "uint256",
          "name": "requestId",
          "type": "uint256"
        },
        {
          "indexed": false,
          "internalType": "uint32",
          "name": "numWords",
          "type": "uint32"
        }
      ],
      "name": "RequestSent",
      "type": "event"
    },
    {
      "anonymous": false,
      "inputs": [
        {
          "indexed": true,
          "internalType": "address",
          "name": "from",
          "type": "address"
        },
        {
          "indexed": false,
          "internalType": "uint256",
          "name": "timestamp",
          "type": "uint256"
        },
        {
          "indexed": false,
          "internalType": "string",
          "name": "message",
          "type": "string"
        }
      ],
      "name": "SupporterEvent",
      "type": "event"
    },
    {
      "inputs": [],
      "name": "_owner",
      "outputs": [
        {
          "internalType": "address payable",
          "name": "",
          "type": "address"
        }
      ],
      "stateMutability": "view",
      "type": "function"
    },
    {
      "inputs": [],
      "name": "acceptOwnership",
      "outputs": [],
      "stateMutability": "nonpayable",
      "type": "function"
    },
    {
      "inputs": [],
      "name": "addVerifyBatch",
      "outputs": [],
      "stateMutability": "nonpayable",
      "type": "function"
    },
    {
      "inputs": [
        {
          "internalType": "bytes",
          "name": "",
          "type": "bytes"
        }
      ],
      "name": "checkUpkeep",
      "outputs": [
        {
          "internalType": "bool",
          "name": "upkeepNeeded",
          "type": "bool"
        },
        {
          "internalType": "bytes",
          "name": "",
          "type": "bytes"
        }
      ],
      "stateMutability": "view",
      "type": "function"
    },
    {
      "inputs": [],
      "name": "contractBal",
      "outputs": [
        {
          "internalType": "uint256",
          "name": "",
          "type": "uint256"
        }
      ],
      "stateMutability": "view",
      "type": "function"
    },
    {
      "inputs": [],
      "name": "contractOwnerWithdraw",
      "outputs": [],
      "stateMutability": "nonpayable",
      "type": "function"
    },
    {
      "inputs": [],
      "name": "creatorCounter",
      "outputs": [
        {
          "internalType": "uint256",
          "name": "",
          "type": "uint256"
        }
      ],
      "stateMutability": "view",
      "type": "function"
    },
    {
      "inputs": [],
      "name": "featuredCreator",
      "outputs": [
        {
          "components": [
            {
              "internalType": "uint256",
              "name": "id",
              "type": "uint256"
            },
            {
              "internalType": "string",
              "name": "username",
              "type": "string"
            },
            {
              "internalType": "string",
              "name": "ipfsHash",
              "type": "string"
            },
            {
              "internalType": "address payable",
              "name": "walletAddress",
              "type": "address"
            },
            {
              "internalType": "string",
              "name": "userbio",
              "type": "string"
            },
            {
              "internalType": "uint256",
              "name": "donationsReceived",
              "type": "uint256"
            },
            {
              "internalType": "string",
              "name": "networkOption",
              "type": "string"
            },
            {
              "internalType": "uint256",
              "name": "supporters",
              "type": "uint256"
            },
            {
              "internalType": "bool",
              "name": "verified",
              "type": "bool"
            }
          ],
          "internalType": "struct Donation.CreatorInfo[]",
          "name": "creators",
          "type": "tuple[]"
        }
      ],
      "stateMutability": "nonpayable",
      "type": "function"
    },
    {
      "inputs": [
        {
          "internalType": "uint256",
          "name": "index",
          "type": "uint256"
        }
      ],
      "name": "getCreatorBal",
      "outputs": [
        {
          "internalType": "uint256",
          "name": "",
          "type": "uint256"
        }
      ],
      "stateMutability": "view",
      "type": "function"
    },
    {
      "inputs": [],
      "name": "getCreatorCount",
      "outputs": [
        {
          "internalType": "uint256",
          "name": "",
          "type": "uint256"
        }
      ],
      "stateMutability": "view",
      "type": "function"
    },
    {
      "inputs": [
        {
          "internalType": "uint256",
          "name": "index",
          "type": "uint256"
        }
      ],
      "name": "getCreatorInfo",
      "outputs": [
        {
          "internalType": "uint256",
          "name": "id",
          "type": "uint256"
        },
        {
          "internalType": "string",
          "name": "",
          "type": "string"
        },
        {
          "internalType": "string",
          "name": "",
          "type": "string"
        },
        {
          "internalType": "address",
          "name": "",
          "type": "address"
        },
        {
          "internalType": "string",
          "name": "",
          "type": "string"
        },
        {
          "internalType": "uint256",
          "name": "",
          "type": "uint256"
        },
        {
          "internalType": "string",
          "name": "",
          "type": "string"
        },
        {
          "internalType": "uint256",
          "name": "",
          "type": "uint256"
        }
      ],
      "stateMutability": "view",
      "type": "function"
    },
    {
      "inputs": [],
      "name": "getCreatorList",
      "outputs": [
        {
          "components": [
            {
              "internalType": "uint256",
              "name": "id",
              "type": "uint256"
            },
            {
              "internalType": "string",
              "name": "username",
              "type": "string"
            },
            {
              "internalType": "string",
              "name": "ipfsHash",
              "type": "string"
            },
            {
              "internalType": "address payable",
              "name": "walletAddress",
              "type": "address"
            },
            {
              "internalType": "string",
              "name": "userbio",
              "type": "string"
            },
            {
              "internalType": "uint256",
              "name": "donationsReceived",
              "type": "uint256"
            },
            {
              "internalType": "string",
              "name": "networkOption",
              "type": "string"
            },
            {
              "internalType": "uint256",
              "name": "supporters",
              "type": "uint256"
            },
            {
              "internalType": "bool",
              "name": "verified",
              "type": "bool"
            }
          ],
          "internalType": "struct Donation.CreatorInfo[]",
          "name": "creators",
          "type": "tuple[]"
        }
      ],
      "stateMutability": "view",
      "type": "function"
    },
    {
      "inputs": [
        {
          "internalType": "uint256",
          "name": "_index",
          "type": "uint256"
        }
      ],
      "name": "getCreatorObj",
      "outputs": [
        {
          "components": [
            {
              "internalType": "uint256",
              "name": "id",
              "type": "uint256"
            },
            {
              "internalType": "string",
              "name": "username",
              "type": "string"
            },
            {
              "internalType": "string",
              "name": "ipfsHash",
              "type": "string"
            },
            {
              "internalType": "address payable",
              "name": "walletAddress",
              "type": "address"
            },
            {
              "internalType": "string",
              "name": "userbio",
              "type": "string"
            },
            {
              "internalType": "uint256",
              "name": "donationsReceived",
              "type": "uint256"
            },
            {
              "internalType": "string",
              "name": "networkOption",
              "type": "string"
            },
            {
              "internalType": "uint256",
              "name": "supporters",
              "type": "uint256"
            },
            {
              "internalType": "bool",
              "name": "verified",
              "type": "bool"
            }
          ],
          "internalType": "struct Donation.CreatorInfo",
          "name": "",
          "type": "tuple"
        }
      ],
      "stateMutability": "view",
      "type": "function"
    },
    {
      "inputs": [
        {
          "internalType": "uint256",
          "name": "_requestId",
          "type": "uint256"
        }
      ],
      "name": "getRequestStatus",
      "outputs": [
        {
          "internalType": "bool",
          "name": "fulfilled",
          "type": "bool"
        },
        {
          "internalType": "uint256[]",
          "name": "randomWords",
          "type": "uint256[]"
        }
      ],
      "stateMutability": "view",
      "type": "function"
    },
    {
      "inputs": [
        {
          "internalType": "uint256",
          "name": "index",
          "type": "uint256"
        }
      ],
      "name": "getSupportInfo",
      "outputs": [
        {
          "internalType": "address",
          "name": "_from",
          "type": "address"
        },
        {
          "internalType": "uint256",
          "name": "_timestamp",
          "type": "uint256"
        },
        {
          "internalType": "string",
          "name": "_message",
          "type": "string"
        }
      ],
      "stateMutability": "view",
      "type": "function"
    },
    {
      "inputs": [],
      "name": "getSupporterList",
      "outputs": [
        {
          "components": [
            {
              "internalType": "address",
              "name": "from",
              "type": "address"
            },
            {
              "internalType": "uint256",
              "name": "timestamp",
              "type": "uint256"
            },
            {
              "internalType": "string",
              "name": "message",
              "type": "string"
            }
          ],
          "internalType": "struct Donation.Supporter[]",
          "name": "",
          "type": "tuple[]"
        }
      ],
      "stateMutability": "view",
      "type": "function"
    },
    {
      "inputs": [
        {
          "internalType": "uint256",
          "name": "_index",
          "type": "uint256"
        }
      ],
      "name": "getSupporterObj",
      "outputs": [
        {
          "components": [
            {
              "internalType": "address",
              "name": "from",
              "type": "address"
            },
            {
              "internalType": "uint256",
              "name": "timestamp",
              "type": "uint256"
            },
            {
              "internalType": "string",
              "name": "message",
              "type": "string"
            }
          ],
          "internalType": "struct Donation.Supporter",
          "name": "",
          "type": "tuple"
        }
      ],
      "stateMutability": "view",
      "type": "function"
    },
    {
      "inputs": [],
      "name": "getSupporters",
      "outputs": [
        {
          "internalType": "uint256",
          "name": "",
          "type": "uint256"
        }
      ],
      "stateMutability": "view",
      "type": "function"
    },
    {
      "inputs": [],
      "name": "lastRequestId",
      "outputs": [
        {
          "internalType": "uint256",
          "name": "",
          "type": "uint256"
        }
      ],
      "stateMutability": "view",
      "type": "function"
    },
    {
      "inputs": [],
      "name": "owner",
      "outputs": [
        {
          "internalType": "address",
          "name": "",
          "type": "address"
        }
      ],
      "stateMutability": "view",
      "type": "function"
    },
    {
      "inputs": [
        {
          "internalType": "bytes",
          "name": "",
          "type": "bytes"
        }
      ],
      "name": "performUpkeep",
      "outputs": [],
      "stateMutability": "nonpayable",
      "type": "function"
    },
    {
      "inputs": [],
      "name": "randomWordsNum",
      "outputs": [
        {
          "internalType": "uint256",
          "name": "",
          "type": "uint256"
        }
      ],
      "stateMutability": "view",
      "type": "function"
    },
    {
      "inputs": [
        {
          "internalType": "uint256",
          "name": "requestId",
          "type": "uint256"
        },
        {
          "internalType": "uint256[]",
          "name": "randomWords",
          "type": "uint256[]"
        }
      ],
      "name": "rawFulfillRandomWords",
      "outputs": [],
      "stateMutability": "nonpayable",
      "type": "function"
    },
    {
      "inputs": [
        {
          "internalType": "uint256",
          "name": "",
          "type": "uint256"
        }
      ],
      "name": "requestIds",
      "outputs": [
        {
          "internalType": "uint256",
          "name": "",
          "type": "uint256"
        }
      ],
      "stateMutability": "view",
      "type": "function"
    },
    {
      "inputs": [],
      "name": "requestRandomWords",
      "outputs": [
        {
          "internalType": "uint256",
          "name": "requestId",
          "type": "uint256"
        }
      ],
      "stateMutability": "nonpayable",
      "type": "function"
    },
    {
      "inputs": [
        {
          "internalType": "uint256",
          "name": "",
          "type": "uint256"
        }
      ],
      "name": "s_requests",
      "outputs": [
        {
          "internalType": "bool",
          "name": "fulfilled",
          "type": "bool"
        },
        {
          "internalType": "bool",
          "name": "exists",
          "type": "bool"
        }
      ],
      "stateMutability": "view",
      "type": "function"
    },
    {
      "inputs": [],
      "name": "sendContractBalanceToOwner",
      "outputs": [],
      "stateMutability": "nonpayable",
      "type": "function"
    },
    {
      "inputs": [
        {
          "internalType": "string",
          "name": "_message",
          "type": "string"
        },
        {
          "internalType": "uint256",
          "name": "_index",
          "type": "uint256"
        }
      ],
      "name": "sendTip",
      "outputs": [],
      "stateMutability": "payable",
      "type": "function"
    },
    {
      "inputs": [
        {
          "internalType": "string",
          "name": "_message",
          "type": "string"
        },
        {
          "internalType": "uint256",
          "name": "_index",
          "type": "uint256"
        },
        {
          "internalType": "uint256",
          "name": "_amount",
          "type": "uint256"
        },
        {
          "internalType": "address",
          "name": "_tokenAddress",
          "type": "address"
        }
      ],
      "name": "sendTipERC20",
      "outputs": [],
      "stateMutability": "payable",
      "type": "function"
    },
    {
      "inputs": [
        {
          "internalType": "string",
          "name": "_username",
          "type": "string"
        },
        {
          "internalType": "string",
          "name": "_ipfsHash",
          "type": "string"
        },
        {
          "internalType": "string",
          "name": "_userbio",
          "type": "string"
        },
        {
          "internalType": "string",
          "name": "_networkOption",
          "type": "string"
        }
      ],
      "name": "setCreatorDetail",
      "outputs": [],
      "stateMutability": "nonpayable",
      "type": "function"
    },
    {
      "inputs": [
        {
          "internalType": "address",
          "name": "to",
          "type": "address"
        }
      ],
      "name": "transferOwnership",
      "outputs": [],
      "stateMutability": "nonpayable",
      "type": "function"
    }
  ],
  "bytecode": "0x60a06040527f474e34a077df58807dbe9c96d3c009b23b3c6d0cce433e59bbf5b34f823bc56c600955600a80546001600160501b03191666030003000186a01790553480156200004e57600080fd5b506040516200365638038062003656833981016040819052620000719162000229565b60016000908155737a1bac17ccc5b313516c5e16fb24f7659aa5ebed6080523390819081620000e75760405162461bcd60e51b815260206004820152601860248201527f43616e6e6f7420736574206f776e657220746f207a65726f000000000000000060448201526064015b60405180910390fd5b600180546001600160a01b0319166001600160a01b03848116919091179091558116156200011a576200011a816200017d565b5050600680546001600160401b03909316600160a01b026001600160e01b031990931692909217737a1bac17ccc5b313516c5e16fb24f7659aa5ebed1790915550600c80546001600160a01b0319163317905561012c600d5542600e556200025b565b336001600160a01b03821603620001d75760405162461bcd60e51b815260206004820152601760248201527f43616e6e6f74207472616e7366657220746f2073656c660000000000000000006044820152606401620000de565b600280546001600160a01b0319166001600160a01b03838116918217909255600154604051919216907fed8889f560326eb138920d842192f0eb3dd22b4f139c87a2c57538e05bae127890600090a350565b6000602082840312156200023c57600080fd5b81516001600160401b03811681146200025457600080fd5b9392505050565b6080516133d86200027e600039600081816106f9015261073b01526133d86000f3fe6080604052600436106101d85760003560e01c8063b137d62911610102578063d9088afc11610095578063e0c8628911610064578063e0c8628914610574578063f2fde38b14610589578063fc2a88c3146105a9578063fe47795e146105bf57600080fd5b8063d9088afc14610508578063db9020eb1461051d578063dfe6712e1461053f578063e0a57eb81461055457600080fd5b8063c580ec0a116100d1578063c580ec0a14610492578063c92d7231146104a5578063c9cd30a0146104c7578063d8a4676f146104da57600080fd5b8063b137d62914610432578063b2bdfa7b14610447578063bc06026614610467578063c43ad4811461047c57600080fd5b80634585e33b1161017a5780638796ba8c116101495780638796ba8c1461037a5780638da5cb5b1461039a5780639a8ff87c146103cc578063a168fa89146103e257600080fd5b80634585e33b146102ea5780634af498a21461030a5780636e04ff0d1461033757806379ba50971461036557600080fd5b806325e860a5116101b657806325e860a5146102695780633985d5001461028957806340585036146102b857806343020b1a146102cb57600080fd5b806305860bdc146101dd5780631fe543e3146102135780632516f8e614610235575b600080fd5b3480156101e957600080fd5b506101fd6101f83660046128e0565b6105d4565b60405161020a9190612982565b60405180910390f35b34801561021f57600080fd5b5061023361022e3660046129e3565b6106ee565b005b34801561024157600080fd5b506102556102503660046128e0565b61077b565b60405161020a989796959493929190612a95565b34801561027557600080fd5b50610233610284366004612b86565b610a31565b34801561029557600080fd5b506102a96102a43660046128e0565b610cf1565b60405161020a93929190612c33565b6102336102c6366004612c7f565b610dd6565b3480156102d757600080fd5b506012545b60405190815260200161020a565b3480156102f657600080fd5b50610233610305366004612ce0565b6111b8565b34801561031657600080fd5b5061032a6103253660046128e0565b6111e7565b60405161020a9190612e10565b34801561034357600080fd5b50610357610352366004612ce0565b611501565b60405161020a929190612e23565b34801561037157600080fd5b5061023361158a565b34801561038657600080fd5b506102dc6103953660046128e0565b611638565b3480156103a657600080fd5b506001546001600160a01b03165b6040516001600160a01b03909116815260200161020a565b3480156103d857600080fd5b506102dc600b5481565b3480156103ee57600080fd5b5061041b6103fd3660046128e0565b60056020526000908152604090205460ff8082169161010090041682565b60408051921515835290151560208301520161020a565b34801561043e57600080fd5b50610233611659565b34801561045357600080fd5b50600c546103b4906001600160a01b031681565b34801561047357600080fd5b506102336116ea565b34801561048857600080fd5b506102dc60045481565b6102336104a0366004612e3e565b61174f565b3480156104b157600080fd5b506104ba611a6c565b60405161020a9190612e83565b3480156104d357600080fd5b50476102dc565b3480156104e657600080fd5b506104fa6104f53660046128e0565b611d5e565b60405161020a929190612f20565b34801561051457600080fd5b50610233611e52565b34801561052957600080fd5b50610532611ef8565b60405161020a9190612f3b565b34801561054b57600080fd5b506013546102dc565b34801561056057600080fd5b506102dc61056f3660046128e0565b612000565b34801561058057600080fd5b506102dc612031565b34801561059557600080fd5b506102336105a4366004612f90565b6121f6565b3480156105b557600080fd5b506102dc60085481565b3480156105cb57600080fd5b506104ba612207565b604080516060808201835260008083526020830152918101919091526012828154811061060357610603612fab565b90600052602060002090600302016040518060600160405290816000820160009054906101000a90046001600160a01b03166001600160a01b03166001600160a01b031681526020016001820154815260200160028201805461066590612fc1565b80601f016020809104026020016040519081016040528092919081815260200182805461069190612fc1565b80156106de5780601f106106b3576101008083540402835291602001916106de565b820191906000526020600020905b8154815290600101906020018083116106c157829003601f168201915b5050505050815250509050919050565b336001600160a01b037f0000000000000000000000000000000000000000000000000000000000000000161461076d5760405163073e64fd60e21b81523360048201526001600160a01b037f00000000000000000000000000000000000000000000000000000000000000001660248201526044015b60405180910390fd5b6107778282612643565b5050565b6000606080600060606000606060008060138a8154811061079e5761079e612fab565b90600052602060002090600902019050806000015481600101826002018360030160009054906101000a90046001600160a01b03168460040185600501548660060187600701548680546107f190612fc1565b80601f016020809104026020016040519081016040528092919081815260200182805461081d90612fc1565b801561086a5780601f1061083f5761010080835404028352916020019161086a565b820191906000526020600020905b81548152906001019060200180831161084d57829003601f168201915b5050505050965085805461087d90612fc1565b80601f01602080910402602001604051908101604052809291908181526020018280546108a990612fc1565b80156108f65780601f106108cb576101008083540402835291602001916108f6565b820191906000526020600020905b8154815290600101906020018083116108d957829003601f168201915b5050505050955083805461090990612fc1565b80601f016020809104026020016040519081016040528092919081815260200182805461093590612fc1565b80156109825780601f1061095757610100808354040283529160200191610982565b820191906000526020600020905b81548152906001019060200180831161096557829003601f168201915b5050505050935081805461099590612fc1565b80601f01602080910402602001604051908101604052809291908181526020018280546109c190612fc1565b8015610a0e5780601f106109e357610100808354040283529160200191610a0e565b820191906000526020600020905b8154815290600101906020018083116109f157829003601f168201915b505050505091509850985098509850985098509850985050919395975091939597565b6000845111610a3f57600080fd5b6000835111610a4d57600080fd5b6000825111610a5b57600080fd5b336000908152600f60205260408120548190819060ff1615610ab75760405162461bcd60e51b81526020600482015260156024820152741059191c995cdcc8185b1c9958591e48195e1a5cdd605a1b6044820152606401610764565b601087604051610ac79190612ffb565b9081526040519081900360200190205460ff1615610b205760405162461bcd60e51b8152602060048201526016602482015275155cd95c9b985b5948185b1c9958591e48195e1a5cdd60521b6044820152606401610764565b610b2e600380546001019055565b6013604051806101200160405280610b4560035490565b815260208082018b9052604082018a90523360608301526080820189905260a0820187905260c0820188905260e08201869052841515610100909201919091528254600181810185556000948552938290208351600990920201908155908201519192909190820190610bb89082613065565b5060408201516002820190610bcd9082613065565b5060608201516003820180546001600160a01b0319166001600160a01b0390921691909117905560808201516004820190610c089082613065565b5060a0820151600582015560c08201516006820190610c279082613065565b5060e08201516007820155610100909101516008909101805491151560ff19928316179055336000908152600f6020526040908190208054909216600190811790925551601090610c79908a90612ffb565b908152604051908190036020019020805491151560ff199092169190911790557f037dc99877f107637f52d4254c3708478fcf54ee2a2011f7192cff3fb27cd53a610cc360035490565b88338989888a8989604051610ce099989796959493929190613125565b60405180910390a150505050505050565b6000806060600060128581548110610d0b57610d0b612fab565b906000526020600020906003020190508060000160009054906101000a90046001600160a01b0316816001015482600201808054610d4890612fc1565b80601f0160208091040260200160405190810160405280929190818152602001828054610d7490612fc1565b8015610dc15780601f10610d9657610100808354040283529160200191610dc1565b820191906000526020600020905b815481529060010190602001808311610da457829003601f168201915b50505050509050935093509350509193909250565b610dde61272a565b6000819050600060138581548110610df857610df8612fab565b60009182526020909120600360099092020101546001600160a01b0316905083610e555760405162461bcd60e51b815260206004820152600e60248201526d125b9d985b1a5908185b5bdd5b9d60921b6044820152606401610764565b3331841115610e9d5760405162461bcd60e51b8152602060048201526014602482015273496e73756666696369656e742062616c616e636560601b6044820152606401610764565b6040516323b872dd60e01b81523360048201526001600160a01b038281166024830152604482018690528316906323b872dd906064016020604051808303816000875af1158015610ef2573d6000803e3d6000fd5b505050506040513d601f19601f82011682018060405250810190610f1691906131af565b506000816001600160a01b03163460405160006040518083038185875af1925050503d8060008114610f64576040519150601f19603f3d011682016040523d82523d6000602084013e610f69565b606091505b5050905080610f8a5760405162461bcd60e51b8152600401610764906131d1565b8460138781548110610f9e57610f9e612fab565b90600052602060002090600902016005016000828254610fbe9190613215565b92505081905550600060138781548110610fda57610fda612fab565b60009182526020808320600360099093020191909101546001600160a01b031680835260119091526040822080549193508892909161101a908490613215565b9091555050601380548890811061103357611033612fab565b60009182526020909120600990910201600301546001600160a01b031633146110915760016013888154811061106b5761106b612fab565b9060005260206000209060090201600701600082825461108b9190613215565b90915550505b6040805160608101825233815242602082019081529181018a81526012805460018101825560009190915282517fbb8a6a4669ba250d26cd7a459eca9d215f8307e33aebe50379bc5a3617ec3444600390920291820180546001600160a01b0319166001600160a01b0390921691909117815593517fbb8a6a4669ba250d26cd7a459eca9d215f8307e33aebe50379bc5a3617ec344582015590519192917fbb8a6a4669ba250d26cd7a459eca9d215f8307e33aebe50379bc5a3617ec34469091019061115e9082613065565b505050336001600160a01b03167fd6a897edbe2f5bae63386e323f717069a8974221d9297299ac544cace2d0f992428a60405161119c92919061322e565b60405180910390a2505050506111b26001600055565b50505050565b6111c06116ea565b600d54600e546111d09042613247565b11156107775742600e556111e2612207565b505050565b61124160405180610120016040528060008152602001606081526020016060815260200160006001600160a01b03168152602001606081526020016000815260200160608152602001600081526020016000151581525090565b6013828154811061125457611254612fab565b9060005260206000209060090201604051806101200160405290816000820154815260200160018201805461128890612fc1565b80601f01602080910402602001604051908101604052809291908181526020018280546112b490612fc1565b80156113015780601f106112d657610100808354040283529160200191611301565b820191906000526020600020905b8154815290600101906020018083116112e457829003601f168201915b5050505050815260200160028201805461131a90612fc1565b80601f016020809104026020016040519081016040528092919081815260200182805461134690612fc1565b80156113935780601f1061136857610100808354040283529160200191611393565b820191906000526020600020905b81548152906001019060200180831161137657829003601f168201915b505050918352505060038201546001600160a01b031660208201526004820180546040909201916113c390612fc1565b80601f01602080910402602001604051908101604052809291908181526020018280546113ef90612fc1565b801561143c5780601f106114115761010080835404028352916020019161143c565b820191906000526020600020905b81548152906001019060200180831161141f57829003601f168201915b505050505081526020016005820154815260200160068201805461145f90612fc1565b80601f016020809104026020016040519081016040528092919081815260200182805461148b90612fc1565b80156114d85780601f106114ad576101008083540402835291602001916114d8565b820191906000526020600020905b8154815290600101906020018083116114bb57829003601f168201915b50505091835250506007820154602082015260089091015460ff16151560409091015292915050565b600060606000805b6013548110156115665760006013828154811061152857611528612fab565b9060005260206000209060090201905060008160050154111561155357600192506001945050611566565b508061155e8161325a565b915050611509565b5082806115805750600d54600e5461157e9042613247565b115b9250509250929050565b6002546001600160a01b031633146115dd5760405162461bcd60e51b815260206004820152601660248201527526bab9ba10313290383937b837b9b2b21037bbb732b960511b6044820152606401610764565b600180546001600160a01b0319808216339081179093556002805490911690556040516001600160a01b03909116919082907f8be0079c531659141344cd1fd0a4f28419497f9722a3daafe3b4186f6b6457e090600090a350565b6007818154811061164857600080fd5b600091825260209091200154905081565b61166161272a565b4780156116dd57600c546040516000916001600160a01b03169083908381818185875af1925050503d80600081146116b5576040519150601f19603f3d011682016040523d82523d6000602084013e6116ba565b606091505b50509050806116db5760405162461bcd60e51b8152600401610764906131d1565b505b506116e86001600055565b565b60005b60135481101561174c5760006013828154811061170c5761170c612fab565b906000526020600020906009020190506000816005015411156117395760088101805460ff191660011790555b50806117448161325a565b9150506116ed565b50565b61175761272a565b600034116117985760405162461bcd60e51b815260206004820152600e60248201526d125b9d985b1a5908185b5bdd5b9d60921b6044820152606401610764565b34333110156117e05760405162461bcd60e51b8152602060048201526014602482015273496e73756666696369656e742062616c616e636560601b6044820152606401610764565b6000601382815481106117f5576117f5612fab565b60009182526020822060099190910201600301546040516001600160a01b039091169250829034908381818185875af1925050503d8060008114611855576040519150601f19603f3d011682016040523d82523d6000602084013e61185a565b606091505b505090508061187b5760405162461bcd60e51b8152600401610764906131d1565b346013848154811061188f5761188f612fab565b906000526020600020906009020160050160008282546118af9190613215565b925050819055506000601384815481106118cb576118cb612fab565b60009182526020808320600360099093020191909101546001600160a01b031680835260119091526040822080549193503492909161190b908490613215565b9250508190555060016013858154811061192757611927612fab565b906000526020600020906009020160070160008282546119479190613215565b90915550506040805160608101825233815242602082019081529181018781526012805460018101825560009190915282517fbb8a6a4669ba250d26cd7a459eca9d215f8307e33aebe50379bc5a3617ec3444600390920291820180546001600160a01b0319166001600160a01b0390921691909117815593517fbb8a6a4669ba250d26cd7a459eca9d215f8307e33aebe50379bc5a3617ec344582015590519192917fbb8a6a4669ba250d26cd7a459eca9d215f8307e33aebe50379bc5a3617ec344690910190611a199082613065565b505050336001600160a01b03167fd6a897edbe2f5bae63386e323f717069a8974221d9297299ac544cace2d0f9924287604051611a5792919061322e565b60405180910390a25050506107776001600055565b60606013805480602002602001604051908101604052809291908181526020016000905b82821015611d5557838290600052602060002090600902016040518061012001604052908160008201548152602001600182018054611ace90612fc1565b80601f0160208091040260200160405190810160405280929190818152602001828054611afa90612fc1565b8015611b475780601f10611b1c57610100808354040283529160200191611b47565b820191906000526020600020905b815481529060010190602001808311611b2a57829003601f168201915b50505050508152602001600282018054611b6090612fc1565b80601f0160208091040260200160405190810160405280929190818152602001828054611b8c90612fc1565b8015611bd95780601f10611bae57610100808354040283529160200191611bd9565b820191906000526020600020905b815481529060010190602001808311611bbc57829003601f168201915b505050918352505060038201546001600160a01b03166020820152600482018054604090920191611c0990612fc1565b80601f0160208091040260200160405190810160405280929190818152602001828054611c3590612fc1565b8015611c825780601f10611c5757610100808354040283529160200191611c82565b820191906000526020600020905b815481529060010190602001808311611c6557829003601f168201915b5050505050815260200160058201548152602001600682018054611ca590612fc1565b80601f0160208091040260200160405190810160405280929190818152602001828054611cd190612fc1565b8015611d1e5780601f10611cf357610100808354040283529160200191611d1e565b820191906000526020600020905b815481529060010190602001808311611d0157829003601f168201915b5050509183525050600782015460208083019190915260089092015460ff1615156040909101529082526001929092019101611a90565b50505050905090565b600081815260056020526040812054606090610100900460ff16611db85760405162461bcd60e51b81526020600482015260116024820152701c995c5d595cdd081b9bdd08199bdd5b99607a1b6044820152606401610764565b60008381526005602090815260408083208151606081018352815460ff8082161515835261010090910416151581850152600182018054845181870281018701865281815292959394860193830182828015611e3357602002820191906000526020600020905b815481526020019060010190808311611e1f575b5050505050815250509050806000015181604001519250925050915091565b611e5a61272a565b600c5460405147916000916001600160a01b039091169083908381818185875af1925050503d8060008114611eab576040519150601f19603f3d011682016040523d82523d6000602084013e611eb0565b606091505b50509050806116db5760405162461bcd60e51b81526020600482015260146024820152732330b4b632b2103a379039b2b7321032ba3432b960611b6044820152606401610764565b60606012805480602002602001604051908101604052809291908181526020016000905b82821015611d55576000848152602090819020604080516060810182526003860290920180546001600160a01b0316835260018101549383019390935260028301805492939291840191611f6f90612fc1565b80601f0160208091040260200160405190810160405280929190818152602001828054611f9b90612fc1565b8015611fe85780601f10611fbd57610100808354040283529160200191611fe8565b820191906000526020600020905b815481529060010190602001808311611fcb57829003601f168201915b50505050508152505081526020019060010190611f1c565b6000806013838154811061201657612016612fab565b60009182526020909120600560099092020101549392505050565b600061203b612783565b600654600954600a546040516305d3b1d360e41b81526004810192909252600160a01b830467ffffffffffffffff166024830152640100000000810461ffff16604483015263ffffffff808216606484015266010000000000009091041660848201526001600160a01b0390911690635d3b1d309060a4016020604051808303816000875af11580156120d2573d6000803e3d6000fd5b505050506040513d601f19601f820116820180604052508101906120f69190613273565b6040805160608101825260008082526001602080840182815285518481528083018752858701908152878552600583529590932084518154945161ffff1990951690151561ff0019161761010094151594909402939093178355935180519596509294919361216b9391850192910190612880565b5050600780546001810182556000919091527fa66cc928b5edb82af9bd49922954155ab7b0942694bea4ce44661d9a8736c68801829055506008819055600a5460408051838152660100000000000090920463ffffffff1660208301527fcc58b13ad3eab50626c6a6300b1d139cd6ebb1688a7cced9461c2f7e762665ee910160405180910390a190565b6121fe612783565b61174c816127d6565b60606000612213612031565b601454600b54919250600091612229919061328c565b905060006014828154811061224057612240612fab565b60009182526020822060148054600181810183559190945260099283029091018054939092027fce6d7b5282bd9a3661ae061feed1dbda4e52ab073b1f9285be6e155d9c38d4ec81019384559193508392917fce6d7b5282bd9a3661ae061feed1dbda4e52ab073b1f9285be6e155d9c38d4ed01906122c1908401826132ae565b506002818101906122d4908401826132ae565b5060038281015490820180546001600160a01b0319166001600160a01b0390921691909117905560048082019061230d908401826132ae565b50600582015481600501556006820181600601908161232c91906132ae565b50600782810154908201556008918201549101805460ff191660ff9092161515919091179055601480546040805160208084028201810190925282815292919060009084015b82821015612637578382906000526020600020906009020160405180610120016040529081600082015481526020016001820180546123b090612fc1565b80601f01602080910402602001604051908101604052809291908181526020018280546123dc90612fc1565b80156124295780601f106123fe57610100808354040283529160200191612429565b820191906000526020600020905b81548152906001019060200180831161240c57829003601f168201915b5050505050815260200160028201805461244290612fc1565b80601f016020809104026020016040519081016040528092919081815260200182805461246e90612fc1565b80156124bb5780601f10612490576101008083540402835291602001916124bb565b820191906000526020600020905b81548152906001019060200180831161249e57829003601f168201915b505050918352505060038201546001600160a01b031660208201526004820180546040909201916124eb90612fc1565b80601f016020809104026020016040519081016040528092919081815260200182805461251790612fc1565b80156125645780601f1061253957610100808354040283529160200191612564565b820191906000526020600020905b81548152906001019060200180831161254757829003601f168201915b505050505081526020016005820154815260200160068201805461258790612fc1565b80601f01602080910402602001604051908101604052809291908181526020018280546125b390612fc1565b80156126005780601f106125d557610100808354040283529160200191612600565b820191906000526020600020905b8154815290600101906020018083116125e357829003601f168201915b5050509183525050600782015460208083019190915260089092015460ff1615156040909101529082526001929092019101612372565b50505050935050505090565b600082815260056020526040902054610100900460ff1661269a5760405162461bcd60e51b81526020600482015260116024820152701c995c5d595cdd081b9bdd08199bdd5b99607a1b6044820152606401610764565b6000828152600560209081526040909120805460ff19166001908117825583516126cb939290910191840190612880565b50806000815181106126df576126df612fab565b6020026020010151600b819055507ffe2e2d779dba245964d4e3ef9b994be63856fd568bf7d3ca9e224755cb1bd54d828260405161271e929190613389565b60405180910390a15050565b60026000540361277c5760405162461bcd60e51b815260206004820152601f60248201527f5265656e7472616e637947756172643a207265656e7472616e742063616c6c006044820152606401610764565b6002600055565b6001546001600160a01b031633146116e85760405162461bcd60e51b815260206004820152601660248201527527b7363c9031b0b63630b1363290313c9037bbb732b960511b6044820152606401610764565b336001600160a01b0382160361282e5760405162461bcd60e51b815260206004820152601760248201527f43616e6e6f74207472616e7366657220746f2073656c660000000000000000006044820152606401610764565b600280546001600160a01b0319166001600160a01b03838116918217909255600154604051919216907fed8889f560326eb138920d842192f0eb3dd22b4f139c87a2c57538e05bae127890600090a350565b8280548282559060005260206000209081019282156128bb579160200282015b828111156128bb5782518255916020019190600101906128a0565b506128c79291506128cb565b5090565b5b808211156128c757600081556001016128cc565b6000602082840312156128f257600080fd5b5035919050565b60005b838110156129145781810151838201526020016128fc565b50506000910152565b600081518084526129358160208601602086016128f9565b601f01601f19169290920160200192915050565b60018060a01b03815116825260208101516020830152600060408201516060604085015261297a606085018261291d565b949350505050565b6020815260006129956020830184612949565b9392505050565b634e487b7160e01b600052604160045260246000fd5b604051601f8201601f1916810167ffffffffffffffff811182821017156129db576129db61299c565b604052919050565b600080604083850312156129f657600080fd5b8235915060208084013567ffffffffffffffff80821115612a1657600080fd5b818601915086601f830112612a2a57600080fd5b813581811115612a3c57612a3c61299c565b8060051b9150612a4d8483016129b2565b8181529183018401918481019089841115612a6757600080fd5b938501935b83851015612a8557843582529385019390850190612a6c565b8096505050505050509250929050565b60006101008a8352806020840152612aaf8184018b61291d565b90508281036040840152612ac3818a61291d565b6001600160a01b038916606085015283810360808501529050612ae6818861291d565b90508560a084015282810360c0840152612b00818661291d565b9150508260e08301529998505050505050505050565b600082601f830112612b2757600080fd5b813567ffffffffffffffff811115612b4157612b4161299c565b612b54601f8201601f19166020016129b2565b818152846020838601011115612b6957600080fd5b816020850160208301376000918101602001919091529392505050565b60008060008060808587031215612b9c57600080fd5b843567ffffffffffffffff80821115612bb457600080fd5b612bc088838901612b16565b95506020870135915080821115612bd657600080fd5b612be288838901612b16565b94506040870135915080821115612bf857600080fd5b612c0488838901612b16565b93506060870135915080821115612c1a57600080fd5b50612c2787828801612b16565b91505092959194509250565b60018060a01b0384168152826020820152606060408201526000612c5a606083018461291d565b95945050505050565b80356001600160a01b0381168114612c7a57600080fd5b919050565b60008060008060808587031215612c9557600080fd5b843567ffffffffffffffff811115612cac57600080fd5b612cb887828801612b16565b9450506020850135925060408501359150612cd560608601612c63565b905092959194509250565b60008060208385031215612cf357600080fd5b823567ffffffffffffffff80821115612d0b57600080fd5b818501915085601f830112612d1f57600080fd5b813581811115612d2e57600080fd5b866020828501011115612d4057600080fd5b60209290920196919550909350505050565b6000610120825184526020830151816020860152612d728286018261291d565b91505060408301518482036040860152612d8c828261291d565b9150506060830151612da960608601826001600160a01b03169052565b5060808301518482036080860152612dc1828261291d565b91505060a083015160a085015260c083015184820360c0860152612de5828261291d565b91505060e083015160e085015261010080840151612e068287018215159052565b5090949350505050565b6020815260006129956020830184612d52565b821515815260406020820152600061297a604083018461291d565b60008060408385031215612e5157600080fd5b823567ffffffffffffffff811115612e6857600080fd5b612e7485828601612b16565b95602094909401359450505050565b6000602080830181845280855180835260408601915060408160051b870101925083870160005b82811015612ed857603f19888603018452612ec6858351612d52565b94509285019290850190600101612eaa565b5092979650505050505050565b600081518084526020808501945080840160005b83811015612f1557815187529582019590820190600101612ef9565b509495945050505050565b821515815260406020820152600061297a6040830184612ee5565b6000602080830181845280855180835260408601915060408160051b870101925083870160005b82811015612ed857603f19888603018452612f7e858351612949565b94509285019290850190600101612f62565b600060208284031215612fa257600080fd5b61299582612c63565b634e487b7160e01b600052603260045260246000fd5b600181811c90821680612fd557607f821691505b602082108103612ff557634e487b7160e01b600052602260045260246000fd5b50919050565b6000825161300d8184602087016128f9565b9190910192915050565b601f8211156111e257600081815260208120601f850160051c8101602086101561303e5750805b601f850160051c820191505b8181101561305d5782815560010161304a565b505050505050565b815167ffffffffffffffff81111561307f5761307f61299c565b6130938161308d8454612fc1565b84613017565b602080601f8311600181146130c857600084156130b05750858301515b600019600386901b1c1916600185901b17855561305d565b600085815260208120601f198616915b828110156130f7578886015182559484019460019091019084016130d8565b50858210156131155787850151600019600388901b60f8161c191681555b5050505050600190811b01905550565b60006101208b835280602084015261313f8184018c61291d565b6001600160a01b038b16604085015283810360608501529050613162818a61291d565b90508281036080840152613176818961291d565b90508660a084015282810360c0840152613190818761291d565b60e0840195909552505090151561010090910152979650505050505050565b6000602082840312156131c157600080fd5b8151801515811461299557600080fd5b6020808252601490820152732330b4b632b2103a379039b2b7321022ba3432b960611b604082015260600190565b634e487b7160e01b600052601160045260246000fd5b80820180821115613228576132286131ff565b92915050565b82815260406020820152600061297a604083018461291d565b81810381811115613228576132286131ff565b60006001820161326c5761326c6131ff565b5060010190565b60006020828403121561328557600080fd5b5051919050565b6000826132a957634e487b7160e01b600052601260045260246000fd5b500690565b8181036132b9575050565b6132c38254612fc1565b67ffffffffffffffff8111156132db576132db61299c565b6132e98161308d8454612fc1565b6000601f82116001811461331d57600083156133055750848201545b600019600385901b1c1916600184901b178455613382565b600085815260209020601f19841690600086815260209020845b838110156133575782860154825560019586019590910190602001613337565b50858310156133755781850154600019600388901b60f8161c191681555b50505060018360011b0184555b5050505050565b82815260406020820152600061297a6040830184612ee556fea26469706673582212207e6938cb5693ef493ff9c6b82791cc3e1025a429889bbafc74bde315b082144b64736f6c63430008120033",
  "linkReferences": {},
  "deployedLinkReferences": {}
}