{
  "_format": "hh-sol-artifact-1",
  "contractName": "Donation",
  "sourceName": "contracts/Donation.sol",
  "abi": [
    {
      "inputs": [],
      "stateMutability": "payable",
      "type": "constructor"
    },
    {
      "anonymous": false,
      "inputs": [
        {
          "indexed": false,
          "internalType": "uint256",
          "name": "id",
          "type": "uint256"
        },
        {
          "indexed": false,
          "internalType": "string",
          "name": "username",
          "type": "string"
        },
        {
          "indexed": false,
          "internalType": "address payable",
          "name": "walletAddress",
          "type": "address"
        },
        {
          "indexed": false,
          "internalType": "string",
          "name": "ipfsHash",
          "type": "string"
        },
        {
          "indexed": false,
          "internalType": "string",
          "name": "userbio",
          "type": "string"
        },
        {
          "indexed": false,
          "internalType": "uint256",
          "name": "donationsReceived",
          "type": "uint256"
        },
        {
          "indexed": false,
          "internalType": "string",
          "name": "networkOption",
          "type": "string"
        },
        {
          "indexed": false,
          "internalType": "string",
          "name": "_phoneContact",
          "type": "string"
        },
        {
          "indexed": false,
          "internalType": "uint256",
          "name": "supporters",
          "type": "uint256"
        }
      ],
      "name": "CreatorEvent",
      "type": "event"
    },
    {
      "anonymous": false,
      "inputs": [
        {
          "indexed": true,
          "internalType": "address",
          "name": "from",
          "type": "address"
        },
        {
          "indexed": false,
          "internalType": "uint256",
          "name": "timestamp",
          "type": "uint256"
        },
        {
          "indexed": false,
          "internalType": "string",
          "name": "message",
          "type": "string"
        }
      ],
      "name": "SupporterEvent",
      "type": "event"
    },
    {
      "inputs": [
        {
          "internalType": "bytes",
          "name": "",
          "type": "bytes"
        }
      ],
      "name": "checkUpkeep",
      "outputs": [
        {
          "internalType": "bool",
          "name": "upkeepNeeded",
          "type": "bool"
        },
        {
          "internalType": "bytes",
          "name": "",
          "type": "bytes"
        }
      ],
      "stateMutability": "view",
      "type": "function"
    },
    {
      "inputs": [],
      "name": "contractBal",
      "outputs": [
        {
          "internalType": "uint256",
          "name": "",
          "type": "uint256"
        }
      ],
      "stateMutability": "view",
      "type": "function"
    },
    {
      "inputs": [],
      "name": "contractOwnerWithdraw",
      "outputs": [],
      "stateMutability": "nonpayable",
      "type": "function"
    },
    {
      "inputs": [],
      "name": "creatorCounter",
      "outputs": [
        {
          "internalType": "uint256",
          "name": "",
          "type": "uint256"
        }
      ],
      "stateMutability": "view",
      "type": "function"
    },
    {
      "inputs": [
        {
          "internalType": "uint256",
          "name": "index",
          "type": "uint256"
        },
        {
          "internalType": "uint256",
          "name": "amount",
          "type": "uint256"
        }
      ],
      "name": "creatorWithdrawTip",
      "outputs": [
        {
          "internalType": "address payable",
          "name": "_creatorAddress",
          "type": "address"
        }
      ],
      "stateMutability": "nonpayable",
      "type": "function"
    },
    {
      "inputs": [
        {
          "internalType": "uint256",
          "name": "index",
          "type": "uint256"
        },
        {
          "internalType": "uint256",
          "name": "amount",
          "type": "uint256"
        }
      ],
      "name": "creatorWithdrawTipUpdated",
      "outputs": [
        {
          "internalType": "address payable",
          "name": "_creatorAddress",
          "type": "address"
        }
      ],
      "stateMutability": "nonpayable",
      "type": "function"
    },
    {
      "inputs": [
        {
          "internalType": "uint256",
          "name": "index",
          "type": "uint256"
        }
      ],
      "name": "getCreatorBal",
      "outputs": [
        {
          "internalType": "uint256",
          "name": "",
          "type": "uint256"
        }
      ],
      "stateMutability": "view",
      "type": "function"
    },
    {
      "inputs": [],
      "name": "getCreatorCount",
      "outputs": [
        {
          "internalType": "uint256",
          "name": "",
          "type": "uint256"
        }
      ],
      "stateMutability": "view",
      "type": "function"
    },
    {
      "inputs": [
        {
          "internalType": "uint256",
          "name": "index",
          "type": "uint256"
        }
      ],
      "name": "getCreatorInfo",
      "outputs": [
        {
          "internalType": "uint256",
          "name": "id",
          "type": "uint256"
        },
        {
          "internalType": "string",
          "name": "",
          "type": "string"
        },
        {
          "internalType": "string",
          "name": "",
          "type": "string"
        },
        {
          "internalType": "address",
          "name": "",
          "type": "address"
        },
        {
          "internalType": "string",
          "name": "",
          "type": "string"
        },
        {
          "internalType": "uint256",
          "name": "",
          "type": "uint256"
        },
        {
          "internalType": "string",
          "name": "",
          "type": "string"
        },
        {
          "internalType": "string",
          "name": "",
          "type": "string"
        },
        {
          "internalType": "uint256",
          "name": "",
          "type": "uint256"
        }
      ],
      "stateMutability": "view",
      "type": "function"
    },
    {
      "inputs": [],
      "name": "getCreatorList",
      "outputs": [
        {
          "components": [
            {
              "internalType": "uint256",
              "name": "id",
              "type": "uint256"
            },
            {
              "internalType": "string",
              "name": "username",
              "type": "string"
            },
            {
              "internalType": "string",
              "name": "ipfsHash",
              "type": "string"
            },
            {
              "internalType": "address payable",
              "name": "walletAddress",
              "type": "address"
            },
            {
              "internalType": "string",
              "name": "userbio",
              "type": "string"
            },
            {
              "internalType": "uint256",
              "name": "donationsReceived",
              "type": "uint256"
            },
            {
              "internalType": "string",
              "name": "networkOption",
              "type": "string"
            },
            {
              "internalType": "string",
              "name": "phoneContact",
              "type": "string"
            },
            {
              "internalType": "uint256",
              "name": "supporters",
              "type": "uint256"
            }
          ],
          "internalType": "struct Donation.CreatorInfo[]",
          "name": "",
          "type": "tuple[]"
        }
      ],
      "stateMutability": "view",
      "type": "function"
    },
    {
      "inputs": [
        {
          "internalType": "uint256",
          "name": "_index",
          "type": "uint256"
        }
      ],
      "name": "getCreatorObj",
      "outputs": [
        {
          "components": [
            {
              "internalType": "uint256",
              "name": "id",
              "type": "uint256"
            },
            {
              "internalType": "string",
              "name": "username",
              "type": "string"
            },
            {
              "internalType": "string",
              "name": "ipfsHash",
              "type": "string"
            },
            {
              "internalType": "address payable",
              "name": "walletAddress",
              "type": "address"
            },
            {
              "internalType": "string",
              "name": "userbio",
              "type": "string"
            },
            {
              "internalType": "uint256",
              "name": "donationsReceived",
              "type": "uint256"
            },
            {
              "internalType": "string",
              "name": "networkOption",
              "type": "string"
            },
            {
              "internalType": "string",
              "name": "phoneContact",
              "type": "string"
            },
            {
              "internalType": "uint256",
              "name": "supporters",
              "type": "uint256"
            }
          ],
          "internalType": "struct Donation.CreatorInfo",
          "name": "",
          "type": "tuple"
        }
      ],
      "stateMutability": "view",
      "type": "function"
    },
    {
      "inputs": [
        {
          "internalType": "uint256",
          "name": "index",
          "type": "uint256"
        }
      ],
      "name": "getSupportInfo",
      "outputs": [
        {
          "internalType": "address",
          "name": "_from",
          "type": "address"
        },
        {
          "internalType": "uint256",
          "name": "_timestamp",
          "type": "uint256"
        },
        {
          "internalType": "string",
          "name": "_message",
          "type": "string"
        }
      ],
      "stateMutability": "view",
      "type": "function"
    },
    {
      "inputs": [],
      "name": "getSupporterList",
      "outputs": [
        {
          "components": [
            {
              "internalType": "address",
              "name": "from",
              "type": "address"
            },
            {
              "internalType": "uint256",
              "name": "timestamp",
              "type": "uint256"
            },
            {
              "internalType": "string",
              "name": "message",
              "type": "string"
            }
          ],
          "internalType": "struct Donation.Supporter[]",
          "name": "",
          "type": "tuple[]"
        }
      ],
      "stateMutability": "view",
      "type": "function"
    },
    {
      "inputs": [
        {
          "internalType": "uint256",
          "name": "_index",
          "type": "uint256"
        }
      ],
      "name": "getSupporterObj",
      "outputs": [
        {
          "components": [
            {
              "internalType": "address",
              "name": "from",
              "type": "address"
            },
            {
              "internalType": "uint256",
              "name": "timestamp",
              "type": "uint256"
            },
            {
              "internalType": "string",
              "name": "message",
              "type": "string"
            }
          ],
          "internalType": "struct Donation.Supporter",
          "name": "",
          "type": "tuple"
        }
      ],
      "stateMutability": "view",
      "type": "function"
    },
    {
      "inputs": [],
      "name": "getSupporters",
      "outputs": [
        {
          "internalType": "uint256",
          "name": "",
          "type": "uint256"
        }
      ],
      "stateMutability": "view",
      "type": "function"
    },
    {
      "inputs": [],
      "name": "owner",
      "outputs": [
        {
          "internalType": "address payable",
          "name": "",
          "type": "address"
        }
      ],
      "stateMutability": "view",
      "type": "function"
    },
    {
      "inputs": [
        {
          "internalType": "bytes",
          "name": "",
          "type": "bytes"
        }
      ],
      "name": "performUpkeep",
      "outputs": [],
      "stateMutability": "nonpayable",
      "type": "function"
    },
    {
      "inputs": [],
      "name": "sendReceivedTipToCreators",
      "outputs": [],
      "stateMutability": "nonpayable",
      "type": "function"
    },
    {
      "inputs": [
        {
          "internalType": "string",
          "name": "_message",
          "type": "string"
        },
        {
          "internalType": "uint256",
          "name": "_index",
          "type": "uint256"
        }
      ],
      "name": "sendTip",
      "outputs": [],
      "stateMutability": "payable",
      "type": "function"
    },
    {
      "inputs": [
        {
          "internalType": "string",
          "name": "_message",
          "type": "string"
        },
        {
          "internalType": "uint256",
          "name": "_index",
          "type": "uint256"
        },
        {
          "internalType": "uint256",
          "name": "_amount",
          "type": "uint256"
        },
        {
          "internalType": "address",
          "name": "_tokenAddress",
          "type": "address"
        }
      ],
      "name": "sendTipERC20",
      "outputs": [],
      "stateMutability": "payable",
      "type": "function"
    },
    {
      "inputs": [
        {
          "internalType": "string",
          "name": "_username",
          "type": "string"
        },
        {
          "internalType": "string",
          "name": "_ipfsHash",
          "type": "string"
        },
        {
          "internalType": "string",
          "name": "_userbio",
          "type": "string"
        },
        {
          "internalType": "string",
          "name": "_phoneContact",
          "type": "string"
        },
        {
          "internalType": "string",
          "name": "_networkOption",
          "type": "string"
        }
      ],
      "name": "setCreatorDetail",
      "outputs": [],
      "stateMutability": "nonpayable",
      "type": "function"
    }
  ],
  "bytecode": "0x60806040526001600055600380546001600160a01b031916331790556129af8061002a6000396000f3fe60806040526004361061012a5760003560e01c80639124dd85116100ab578063c92d72311161006f578063c92d723114610354578063c9cd30a014610376578063d9088afc14610389578063db9020eb1461039e578063dfe6712e146103c0578063e0a57eb8146103d557600080fd5b80639124dd85146102d6578063a3701e26146102f6578063c2d6b25214610316578063c43ad4811461032b578063c580ec0a1461034157600080fd5b80634585e33b116100f25780634585e33b146101fd5780634af498a21461021d5780636e04ff0d1461024a578063746614a81461027e5780638da5cb5b146102b657600080fd5b806305860bdc1461012f5780632516f8e6146101655780633985d5001461019a57806340585036146101c957806343020b1a146101de575b600080fd5b34801561013b57600080fd5b5061014f61014a366004612106565b6103f5565b60405161015c91906121a8565b60405180910390f35b34801561017157600080fd5b50610185610180366004612106565b61050f565b60405161015c999897969594939291906121c2565b3480156101a657600080fd5b506101ba6101b5366004612106565b61085a565b60405161015c93929190612259565b6101dc6101d736600461232c565b61093f565b005b3480156101ea57600080fd5b506008545b60405190815260200161015c565b34801561020957600080fd5b506101dc61021836600461239b565b610d26565b34801561022957600080fd5b5061023d610238366004612106565b610d32565b60405161015c91906124d1565b34801561025657600080fd5b5061027061026536600461239b565b505047151590606090565b60405161015c9291906124e4565b34801561028a57600080fd5b5061029e6102993660046124ff565b6110cd565b6040516001600160a01b03909116815260200161015c565b3480156102c257600080fd5b5060035461029e906001600160a01b031681565b3480156102e257600080fd5b5061029e6102f13660046124ff565b611277565b34801561030257600080fd5b506101dc610311366004612521565b6113ea565b34801561032257600080fd5b506101dc611747565b34801561033757600080fd5b506101ef60025481565b6101dc61034f3660046125f3565b611842565b34801561036057600080fd5b50610369611b5f565b60405161015c9190612638565b34801561038257600080fd5b50476101ef565b34801561039557600080fd5b506101dc611ece565b3480156103aa57600080fd5b506103b3611f74565b60405161015c919061269a565b3480156103cc57600080fd5b506009546101ef565b3480156103e157600080fd5b506101ef6103f0366004612106565b61207c565b6040805160608082018352600080835260208301529181019190915260088281548110610424576104246126ef565b90600052602060002090600302016040518060600160405290816000820160009054906101000a90046001600160a01b03166001600160a01b03166001600160a01b031681526020016001820154815260200160028201805461048690612705565b80601f01602080910402602001604051908101604052809291908181526020018280546104b290612705565b80156104ff5780601f106104d4576101008083540402835291602001916104ff565b820191906000526020600020905b8154815290600101906020018083116104e257829003601f168201915b5050505050815250509050919050565b600060608060006060600060608060008060098b81548110610533576105336126ef565b90600052602060002090600902019050806000015481600101826002018360030160009054906101000a90046001600160a01b03168460040185600501548660060187600701886008015487805461058a90612705565b80601f01602080910402602001604051908101604052809291908181526020018280546105b690612705565b80156106035780601f106105d857610100808354040283529160200191610603565b820191906000526020600020905b8154815290600101906020018083116105e657829003601f168201915b5050505050975086805461061690612705565b80601f016020809104026020016040519081016040528092919081815260200182805461064290612705565b801561068f5780601f106106645761010080835404028352916020019161068f565b820191906000526020600020905b81548152906001019060200180831161067257829003601f168201915b505050505096508480546106a290612705565b80601f01602080910402602001604051908101604052809291908181526020018280546106ce90612705565b801561071b5780601f106106f05761010080835404028352916020019161071b565b820191906000526020600020905b8154815290600101906020018083116106fe57829003601f168201915b5050505050945082805461072e90612705565b80601f016020809104026020016040519081016040528092919081815260200182805461075a90612705565b80156107a75780601f1061077c576101008083540402835291602001916107a7565b820191906000526020600020905b81548152906001019060200180831161078a57829003601f168201915b505050505092508180546107ba90612705565b80601f01602080910402602001604051908101604052809291908181526020018280546107e690612705565b80156108335780601f1061080857610100808354040283529160200191610833565b820191906000526020600020905b81548152906001019060200180831161081657829003601f168201915b50505050509150995099509950995099509950995099509950509193959799909294969850565b6000806060600060088581548110610874576108746126ef565b906000526020600020906003020190508060000160009054906101000a90046001600160a01b03168160010154826002018080546108b190612705565b80601f01602080910402602001604051908101604052809291908181526020018280546108dd90612705565b801561092a5780601f106108ff5761010080835404028352916020019161092a565b820191906000526020600020905b81548152906001019060200180831161090d57829003601f168201915b50505050509050935093509350509193909250565b6109476120ad565b6000819050600060098581548110610961576109616126ef565b60009182526020909120600360099092020101546001600160a01b03169050836109c35760405162461bcd60e51b815260206004820152600e60248201526d125b9d985b1a5908185b5bdd5b9d60921b60448201526064015b60405180910390fd5b3331841115610a0b5760405162461bcd60e51b8152602060048201526014602482015273496e73756666696369656e742062616c616e636560601b60448201526064016109ba565b6040516323b872dd60e01b81523360048201526001600160a01b038281166024830152604482018690528316906323b872dd906064016020604051808303816000875af1158015610a60573d6000803e3d6000fd5b505050506040513d601f19601f82011682018060405250810190610a84919061273f565b506000816001600160a01b03163460405160006040518083038185875af1925050503d8060008114610ad2576040519150601f19603f3d011682016040523d82523d6000602084013e610ad7565b606091505b5050905080610af85760405162461bcd60e51b81526004016109ba90612761565b8460098781548110610b0c57610b0c6126ef565b90600052602060002090600902016005016000828254610b2c91906127a5565b92505081905550600060098781548110610b4857610b486126ef565b60009182526020808320600360099093020191909101546001600160a01b0316808352600790915260408220805491935088929091610b889084906127a5565b90915550506009805488908110610ba157610ba16126ef565b60009182526020909120600990910201600301546001600160a01b03163314610bff57600160098881548110610bd957610bd96126ef565b90600052602060002090600902016008016000828254610bf991906127a5565b90915550505b6040805160608101825233815242602082019081529181018a81526008805460018101825560009190915282517ff3f7a9fe364faab93b216da50a3214154f22a0a2b415b23a84c8169e8b636ee3600390920291820180546001600160a01b0319166001600160a01b0390921691909117815593517ff3f7a9fe364faab93b216da50a3214154f22a0a2b415b23a84c8169e8b636ee482015590519192917ff3f7a9fe364faab93b216da50a3214154f22a0a2b415b23a84c8169e8b636ee590910190610ccc9082612807565b505050336001600160a01b03167fd6a897edbe2f5bae63386e323f717069a8974221d9297299ac544cace2d0f992428a604051610d0a9291906128c7565b60405180910390a250505050610d206001600055565b50505050565b610d2e611747565b5050565b610d8a60405180610120016040528060008152602001606081526020016060815260200160006001600160a01b0316815260200160608152602001600081526020016060815260200160608152602001600081525090565b60098281548110610d9d57610d9d6126ef565b90600052602060002090600902016040518061012001604052908160008201548152602001600182018054610dd190612705565b80601f0160208091040260200160405190810160405280929190818152602001828054610dfd90612705565b8015610e4a5780601f10610e1f57610100808354040283529160200191610e4a565b820191906000526020600020905b815481529060010190602001808311610e2d57829003601f168201915b50505050508152602001600282018054610e6390612705565b80601f0160208091040260200160405190810160405280929190818152602001828054610e8f90612705565b8015610edc5780601f10610eb157610100808354040283529160200191610edc565b820191906000526020600020905b815481529060010190602001808311610ebf57829003601f168201915b505050918352505060038201546001600160a01b03166020820152600482018054604090920191610f0c90612705565b80601f0160208091040260200160405190810160405280929190818152602001828054610f3890612705565b8015610f855780601f10610f5a57610100808354040283529160200191610f85565b820191906000526020600020905b815481529060010190602001808311610f6857829003601f168201915b5050505050815260200160058201548152602001600682018054610fa890612705565b80601f0160208091040260200160405190810160405280929190818152602001828054610fd490612705565b80156110215780601f10610ff657610100808354040283529160200191611021565b820191906000526020600020905b81548152906001019060200180831161100457829003601f168201915b5050505050815260200160078201805461103a90612705565b80601f016020809104026020016040519081016040528092919081815260200182805461106690612705565b80156110b35780601f10611088576101008083540402835291602001916110b3565b820191906000526020600020905b81548152906001019060200180831161109657829003601f168201915b505050505081526020016008820154815250509050919050565b60006110d76120ad565b6000600984815481106110ec576110ec6126ef565b9060005260206000209060090201905060008160050154905060008260030160009054906101000a90046001600160a01b031690508460098781548110611135576111356126ef565b9060005260206000209060090201600501600082825461115591906128e0565b90915550508185111561119d5760405162461bcd60e51b815260206004820152601060248201526f125b9cdd59999a58da595b9d0818985b60821b60448201526064016109ba565b336001600160a01b038216146111ef5760405162461bcd60e51b81526020600482015260176024820152762cb7ba9030b932903737ba103a34329031b932b0ba37b960491b60448201526064016109ba565b6000816001600160a01b03168660405160006040518083038185875af1925050503d806000811461123c576040519150601f19603f3d011682016040523d82523d6000602084013e611241565b606091505b50509050806112625760405162461bcd60e51b81526004016109ba90612761565b50925050506112716001600055565b92915050565b60006112816120ad565b600060098481548110611296576112966126ef565b600091825260208083206003600990930201918201546001600160a01b031680845260079091526040909220549092506112d085826128e0565b9050808511156113155760405162461bcd60e51b815260206004820152601060248201526f125b9cdd59999a58da595b9d0818985b60821b60448201526064016109ba565b336001600160a01b038316146113675760405162461bcd60e51b81526020600482015260176024820152762cb7ba9030b932903737ba103a34329031b932b0ba37b960491b60448201526064016109ba565b6000826001600160a01b03168660405160006040518083038185875af1925050503d80600081146113b4576040519150601f19603f3d011682016040523d82523d6000602084013e6113b9565b606091505b50509050806113da5760405162461bcd60e51b81526004016109ba90612761565b5090925050506112716001600055565b60008551116113f857600080fd5b600084511161140657600080fd5b600083511161141457600080fd5b33600090815260046020526040812054819060ff161561146e5760405162461bcd60e51b81526020600482015260156024820152741059191c995cdcc8185b1c9958591e48195e1a5cdd605a1b60448201526064016109ba565b60058760405161147e91906128f3565b9081526040519081900360200190205460ff16156114d75760405162461bcd60e51b8152602060048201526016602482015275155cd95c9b985b5948185b1c9958591e48195e1a5cdd60521b60448201526064016109ba565b6006846040516114e791906128f3565b9081526040519081900360200190205460ff16156115475760405162461bcd60e51b815260206004820152601b60248201527f50686f6e6520636f6e7461637420616c7265616479206578697374000000000060448201526064016109ba565b611555600180546001019055565b600960405180610120016040528061156c60015490565b815260208082018b9052604082018a90523360608301526080820189905260a0820186905260c0820187905260e0820188905261010090910184905282546001818101855560009485529382902083516009909202019081559082015191929091908201906115db9082612807565b50604082015160028201906115f09082612807565b5060608201516003820180546001600160a01b0319166001600160a01b039092169190911790556080820151600482019061162b9082612807565b5060a0820151600582015560c0820151600682019061164a9082612807565b5060e0820151600782019061165f9082612807565b5061010091909101516008909101553360009081526004602052604090819020805460ff19166001908117909155905160059061169d908a906128f3565b908152604051908190036020018120805492151560ff19909316929092179091556001906006906116cf9087906128f3565b908152604051908190036020019020805491151560ff199092169190911790557f8daf8016753d1ac9f046faea1d9ef107e8528431f0ce8e7aec2a74df2a5f13f661171960015490565b8833898987898b896040516117369998979695949392919061290f565b60405180910390a150505050505050565b61174f6120ad565b6000805b60095481101561183457600060098281548110611772576117726126ef565b600091825260208083206003600990930201918201546001600160a01b031680845260079091526040909220549194509150801561181f576000846001600160a01b03168260405160006040518083038185875af1925050503d80600081146117f7576040519150601f19603f3d011682016040523d82523d6000602084013e6117fc565b606091505b505090508061181d5760405162461bcd60e51b81526004016109ba90612761565b505b5050808061182c90612960565b915050611753565b50506118406001600055565b565b61184a6120ad565b6000341161188b5760405162461bcd60e51b815260206004820152600e60248201526d125b9d985b1a5908185b5bdd5b9d60921b60448201526064016109ba565b34333110156118d35760405162461bcd60e51b8152602060048201526014602482015273496e73756666696369656e742062616c616e636560601b60448201526064016109ba565b6000600982815481106118e8576118e86126ef565b60009182526020822060099190910201600301546040516001600160a01b039091169250829034908381818185875af1925050503d8060008114611948576040519150601f19603f3d011682016040523d82523d6000602084013e61194d565b606091505b505090508061196e5760405162461bcd60e51b81526004016109ba90612761565b3460098481548110611982576119826126ef565b906000526020600020906009020160050160008282546119a291906127a5565b925050819055506000600984815481106119be576119be6126ef565b60009182526020808320600360099093020191909101546001600160a01b03168083526007909152604082208054919350349290916119fe9084906127a5565b92505081905550600160098581548110611a1a57611a1a6126ef565b90600052602060002090600902016008016000828254611a3a91906127a5565b90915550506040805160608101825233815242602082019081529181018781526008805460018101825560009190915282517ff3f7a9fe364faab93b216da50a3214154f22a0a2b415b23a84c8169e8b636ee3600390920291820180546001600160a01b0319166001600160a01b0390921691909117815593517ff3f7a9fe364faab93b216da50a3214154f22a0a2b415b23a84c8169e8b636ee482015590519192917ff3f7a9fe364faab93b216da50a3214154f22a0a2b415b23a84c8169e8b636ee590910190611b0c9082612807565b505050336001600160a01b03167fd6a897edbe2f5bae63386e323f717069a8974221d9297299ac544cace2d0f9924287604051611b4a9291906128c7565b60405180910390a2505050610d2e6001600055565b60606009805480602002602001604051908101604052809291908181526020016000905b82821015611ec557838290600052602060002090600902016040518061012001604052908160008201548152602001600182018054611bc190612705565b80601f0160208091040260200160405190810160405280929190818152602001828054611bed90612705565b8015611c3a5780601f10611c0f57610100808354040283529160200191611c3a565b820191906000526020600020905b815481529060010190602001808311611c1d57829003601f168201915b50505050508152602001600282018054611c5390612705565b80601f0160208091040260200160405190810160405280929190818152602001828054611c7f90612705565b8015611ccc5780601f10611ca157610100808354040283529160200191611ccc565b820191906000526020600020905b815481529060010190602001808311611caf57829003601f168201915b505050918352505060038201546001600160a01b03166020820152600482018054604090920191611cfc90612705565b80601f0160208091040260200160405190810160405280929190818152602001828054611d2890612705565b8015611d755780601f10611d4a57610100808354040283529160200191611d75565b820191906000526020600020905b815481529060010190602001808311611d5857829003601f168201915b5050505050815260200160058201548152602001600682018054611d9890612705565b80601f0160208091040260200160405190810160405280929190818152602001828054611dc490612705565b8015611e115780601f10611de657610100808354040283529160200191611e11565b820191906000526020600020905b815481529060010190602001808311611df457829003601f168201915b50505050508152602001600782018054611e2a90612705565b80601f0160208091040260200160405190810160405280929190818152602001828054611e5690612705565b8015611ea35780601f10611e7857610100808354040283529160200191611ea3565b820191906000526020600020905b815481529060010190602001808311611e8657829003601f168201915b5050505050815260200160088201548152505081526020019060010190611b83565b50505050905090565b611ed66120ad565b60035460405147916000916001600160a01b039091169083908381818185875af1925050503d8060008114611f27576040519150601f19603f3d011682016040523d82523d6000602084013e611f2c565b606091505b50509050806118345760405162461bcd60e51b81526020600482015260146024820152732330b4b632b2103a379039b2b7321032ba3432b960611b60448201526064016109ba565b60606008805480602002602001604051908101604052809291908181526020016000905b82821015611ec5576000848152602090819020604080516060810182526003860290920180546001600160a01b0316835260018101549383019390935260028301805492939291840191611feb90612705565b80601f016020809104026020016040519081016040528092919081815260200182805461201790612705565b80156120645780601f1061203957610100808354040283529160200191612064565b820191906000526020600020905b81548152906001019060200180831161204757829003601f168201915b50505050508152505081526020019060010190611f98565b60008060098381548110612092576120926126ef565b60009182526020909120600560099092020101549392505050565b6002600054036120ff5760405162461bcd60e51b815260206004820152601f60248201527f5265656e7472616e637947756172643a207265656e7472616e742063616c6c0060448201526064016109ba565b6002600055565b60006020828403121561211857600080fd5b5035919050565b60005b8381101561213a578181015183820152602001612122565b50506000910152565b6000815180845261215b81602086016020860161211f565b601f01601f19169290920160200192915050565b60018060a01b0381511682526020810151602083015260006040820151606060408501526121a06060850182612143565b949350505050565b6020815260006121bb602083018461216f565b9392505050565b60006101208b83528060208401526121dc8184018c612143565b905082810360408401526121f0818b612143565b6001600160a01b038a166060850152838103608085015290506122138189612143565b90508660a084015282810360c084015261222d8187612143565b905082810360e08401526122418186612143565b915050826101008301529a9950505050505050505050565b60018060a01b03841681528260208201526060604082015260006122806060830184612143565b95945050505050565b634e487b7160e01b600052604160045260246000fd5b600082601f8301126122b057600080fd5b813567ffffffffffffffff808211156122cb576122cb612289565b604051601f8301601f19908116603f011681019082821181831017156122f3576122f3612289565b8160405283815286602085880101111561230c57600080fd5b836020870160208301376000602085830101528094505050505092915050565b6000806000806080858703121561234257600080fd5b843567ffffffffffffffff81111561235957600080fd5b6123658782880161229f565b945050602085013592506040850135915060608501356001600160a01b038116811461239057600080fd5b939692955090935050565b600080602083850312156123ae57600080fd5b823567ffffffffffffffff808211156123c657600080fd5b818501915085601f8301126123da57600080fd5b8135818111156123e957600080fd5b8660208285010111156123fb57600080fd5b60209290920196919550909350505050565b600061012082518452602083015181602086015261242d82860182612143565b915050604083015184820360408601526124478282612143565b915050606083015161246460608601826001600160a01b03169052565b506080830151848203608086015261247c8282612143565b91505060a083015160a085015260c083015184820360c08601526124a08282612143565b91505060e083015184820360e08601526124ba8282612143565b610100948501519590940194909452509092915050565b6020815260006121bb602083018461240d565b82151581526040602082015260006121a06040830184612143565b6000806040838503121561251257600080fd5b50508035926020909101359150565b600080600080600060a0868803121561253957600080fd5b853567ffffffffffffffff8082111561255157600080fd5b61255d89838a0161229f565b9650602088013591508082111561257357600080fd5b61257f89838a0161229f565b9550604088013591508082111561259557600080fd5b6125a189838a0161229f565b945060608801359150808211156125b757600080fd5b6125c389838a0161229f565b935060808801359150808211156125d957600080fd5b506125e68882890161229f565b9150509295509295909350565b6000806040838503121561260657600080fd5b823567ffffffffffffffff81111561261d57600080fd5b6126298582860161229f565b95602094909401359450505050565b6000602080830181845280855180835260408601915060408160051b870101925083870160005b8281101561268d57603f1988860301845261267b85835161240d565b9450928501929085019060010161265f565b5092979650505050505050565b6000602080830181845280855180835260408601915060408160051b870101925083870160005b8281101561268d57603f198886030184526126dd85835161216f565b945092850192908501906001016126c1565b634e487b7160e01b600052603260045260246000fd5b600181811c9082168061271957607f821691505b60208210810361273957634e487b7160e01b600052602260045260246000fd5b50919050565b60006020828403121561275157600080fd5b815180151581146121bb57600080fd5b6020808252601490820152732330b4b632b2103a379039b2b7321022ba3432b960611b604082015260600190565b634e487b7160e01b600052601160045260246000fd5b808201808211156112715761127161278f565b601f82111561280257600081815260208120601f850160051c810160208610156127df5750805b601f850160051c820191505b818110156127fe578281556001016127eb565b5050505b505050565b815167ffffffffffffffff81111561282157612821612289565b6128358161282f8454612705565b846127b8565b602080601f83116001811461286a57600084156128525750858301515b600019600386901b1c1916600185901b1785556127fe565b600085815260208120601f198616915b828110156128995788860151825594840194600190910190840161287a565b50858210156128b75787850151600019600388901b60f8161c191681555b5050505050600190811b01905550565b8281526040602082015260006121a06040830184612143565b818103818111156112715761127161278f565b6000825161290581846020870161211f565b9190910192915050565b60006101208b83528060208401526129298184018c612143565b6001600160a01b038b1660408501528381036060850152905061294c818a612143565b905082810360808401526122138189612143565b6000600182016129725761297261278f565b506001019056fea2646970667358221220ff9fd64a8e5781aba408a6d3490c01c441a33236e9ec85198d6d682b495f453564736f6c63430008120033",
  "linkReferences": {},
  "deployedLinkReferences": {}
}